{
  "contractName": "DeFiDonate",
  "abi": [
    {
      "constant": true,
      "inputs": [],
      "name": "name",
      "outputs": [
        {
          "name": "",
          "type": "string"
        }
      ],
      "payable": false,
      "stateMutability": "view",
      "type": "function",
      "signature": "0x06fdde03"
    },
    {
      "constant": true,
      "inputs": [],
      "name": "coolOffLength",
      "outputs": [
        {
          "name": "",
          "type": "uint256"
        }
      ],
      "payable": false,
      "stateMutability": "view",
      "type": "function",
      "signature": "0x101d9842"
    },
    {
      "constant": true,
      "inputs": [],
      "name": "totalSupply",
      "outputs": [
        {
          "name": "",
          "type": "uint256"
        }
      ],
      "payable": false,
      "stateMutability": "view",
      "type": "function",
      "signature": "0x18160ddd"
    },
    {
      "constant": true,
      "inputs": [],
      "name": "chosenCharity",
      "outputs": [
        {
          "name": "",
          "type": "address"
        }
      ],
      "payable": false,
      "stateMutability": "view",
      "type": "function",
      "signature": "0x1ec14c17"
    },
    {
      "constant": true,
      "inputs": [],
      "name": "largestVote",
      "outputs": [
        {
          "name": "",
          "type": "uint256"
        }
      ],
      "payable": false,
      "stateMutability": "view",
      "type": "function",
      "signature": "0x1f7b41b0"
    },
    {
      "constant": true,
      "inputs": [
        {
          "name": "",
          "type": "address"
        }
      ],
      "name": "updatedBlock",
      "outputs": [
        {
          "name": "",
          "type": "uint256"
        }
      ],
      "payable": false,
      "stateMutability": "view",
      "type": "function",
      "signature": "0x2e51c084"
    },
    {
      "constant": true,
      "inputs": [],
      "name": "largestCharity",
      "outputs": [
        {
          "name": "",
          "type": "address"
        }
      ],
      "payable": false,
      "stateMutability": "view",
      "type": "function",
      "signature": "0x2ee29fac"
    },
    {
      "constant": true,
      "inputs": [],
      "name": "decimals",
      "outputs": [
        {
          "name": "",
          "type": "uint8"
        }
      ],
      "payable": false,
      "stateMutability": "view",
      "type": "function",
      "signature": "0x313ce567"
    },
    {
      "constant": false,
      "inputs": [
        {
          "name": "spender",
          "type": "address"
        },
        {
          "name": "addedValue",
          "type": "uint256"
        }
      ],
      "name": "increaseAllowance",
      "outputs": [
        {
          "name": "",
          "type": "bool"
        }
      ],
      "payable": false,
      "stateMutability": "nonpayable",
      "type": "function",
      "signature": "0x39509351"
    },
    {
      "constant": true,
      "inputs": [],
      "name": "epochLength",
      "outputs": [
        {
          "name": "",
          "type": "uint256"
        }
      ],
      "payable": false,
      "stateMutability": "view",
      "type": "function",
      "signature": "0x57d775f8"
    },
    {
      "constant": true,
      "inputs": [
        {
          "name": "account",
          "type": "address"
        }
      ],
      "name": "balanceOf",
      "outputs": [
        {
          "name": "",
          "type": "uint256"
        }
      ],
      "payable": false,
      "stateMutability": "view",
      "type": "function",
      "signature": "0x70a08231"
    },
    {
      "constant": true,
      "inputs": [],
      "name": "rolledEpoch",
      "outputs": [
        {
          "name": "",
          "type": "uint256"
        }
      ],
      "payable": false,
      "stateMutability": "view",
      "type": "function",
      "signature": "0x895a15d3"
    },
    {
      "constant": true,
      "inputs": [],
      "name": "charity",
      "outputs": [
        {
          "name": "",
          "type": "address"
        }
      ],
      "payable": false,
      "stateMutability": "view",
      "type": "function",
      "signature": "0x934aa023"
    },
    {
      "constant": true,
      "inputs": [],
      "name": "symbol",
      "outputs": [
        {
          "name": "",
          "type": "string"
        }
      ],
      "payable": false,
      "stateMutability": "view",
      "type": "function",
      "signature": "0x95d89b41"
    },
    {
      "constant": false,
      "inputs": [
        {
          "name": "spender",
          "type": "address"
        },
        {
          "name": "subtractedValue",
          "type": "uint256"
        }
      ],
      "name": "decreaseAllowance",
      "outputs": [
        {
          "name": "",
          "type": "bool"
        }
      ],
      "payable": false,
      "stateMutability": "nonpayable",
      "type": "function",
      "signature": "0xa457c2d7"
    },
    {
      "constant": true,
      "inputs": [],
      "name": "nextEpoch",
      "outputs": [
        {
          "name": "",
          "type": "uint256"
        }
      ],
      "payable": false,
      "stateMutability": "view",
      "type": "function",
      "signature": "0xaea0e78b"
    },
    {
      "constant": true,
      "inputs": [],
      "name": "depositToken",
      "outputs": [
        {
          "name": "",
          "type": "address"
        }
      ],
      "payable": false,
      "stateMutability": "view",
      "type": "function",
      "signature": "0xc89039c5"
    },
    {
      "constant": true,
      "inputs": [
        {
          "name": "",
          "type": "address"
        }
      ],
      "name": "votes",
      "outputs": [
        {
          "name": "",
          "type": "uint256"
        }
      ],
      "payable": false,
      "stateMutability": "view",
      "type": "function",
      "signature": "0xd8bff5a5"
    },
    {
      "constant": true,
      "inputs": [
        {
          "name": "owner",
          "type": "address"
        },
        {
          "name": "spender",
          "type": "address"
        }
      ],
      "name": "allowance",
      "outputs": [
        {
          "name": "",
          "type": "uint256"
        }
      ],
      "payable": false,
      "stateMutability": "view",
      "type": "function",
      "signature": "0xdd62ed3e"
    },
    {
      "constant": true,
      "inputs": [],
      "name": "compound",
      "outputs": [
        {
          "name": "",
          "type": "address"
        }
      ],
      "payable": false,
      "stateMutability": "view",
      "type": "function",
      "signature": "0xf69e2046"
    },
    {
      "constant": true,
      "inputs": [],
      "name": "governanceToken",
      "outputs": [
        {
          "name": "",
          "type": "address"
        }
      ],
      "payable": false,
      "stateMutability": "view",
      "type": "function",
      "signature": "0xf96dae0a"
    },
    {
      "inputs": [
        {
          "name": "_name",
          "type": "string"
        },
        {
          "name": "_symbol",
          "type": "string"
        },
        {
          "name": "_decimals",
          "type": "uint8"
        },
        {
          "name": "_depositToken",
          "type": "address"
        },
        {
          "name": "_compound",
          "type": "address"
        },
        {
          "name": "_charity",
          "type": "address"
        },
        {
          "name": "_epochLength",
          "type": "uint256"
        },
        {
          "name": "_coolOffLength",
          "type": "uint256"
        }
      ],
      "payable": false,
      "stateMutability": "nonpayable",
      "type": "constructor",
      "signature": "constructor"
    },
    {
      "anonymous": false,
      "inputs": [
        {
          "indexed": true,
          "name": "_account",
          "type": "address"
        },
        {
          "indexed": false,
          "name": "_accrued",
          "type": "uint256"
        }
      ],
      "name": "Accrued",
      "type": "event",
      "signature": "0x603f16706d8facbdadddadc2f84737909caebc5d1f3adf53d69014f2d908611c"
    },
    {
      "anonymous": false,
      "inputs": [
        {
          "indexed": true,
          "name": "_account",
          "type": "address"
        },
        {
          "indexed": false,
          "name": "_amount",
          "type": "uint256"
        }
      ],
      "name": "Wrapped",
      "type": "event",
      "signature": "0x4700c1726b4198077cd40320a32c45265a1910521eb0ef713dd1d8412413d7fc"
    },
    {
      "anonymous": false,
      "inputs": [
        {
          "indexed": true,
          "name": "_account",
          "type": "address"
        },
        {
          "indexed": false,
          "name": "_amount",
          "type": "uint256"
        }
      ],
      "name": "Unwrapped",
      "type": "event",
      "signature": "0x95ae649bfaaef9def56a52f4fb2d9e8fa5496bb7082930e442c74cc76b03dcb3"
    },
    {
      "anonymous": false,
      "inputs": [
        {
          "indexed": true,
          "name": "_charity",
          "type": "address"
        },
        {
          "indexed": false,
          "name": "_amount",
          "type": "uint256"
        }
      ],
      "name": "Donated",
      "type": "event",
      "signature": "0x2a01595cddf097c90216094025db714da3f4e5bd8877b56ba86a24ecead8e543"
    },
    {
      "anonymous": false,
      "inputs": [
        {
          "indexed": true,
          "name": "_voter",
          "type": "address"
        },
        {
          "indexed": true,
          "name": "_charity",
          "type": "address"
        },
        {
          "indexed": false,
          "name": "_vote",
          "type": "uint256"
        },
        {
          "indexed": false,
          "name": "_voteTotal",
          "type": "uint256"
        },
        {
          "indexed": false,
          "name": "_comment",
          "type": "string"
        }
      ],
      "name": "Voted",
      "type": "event",
      "signature": "0xbb8fafc0c10a875f2022cef6f7cdd042f0f5029bcb96f583d99b1d64511a5b87"
    },
    {
      "anonymous": false,
      "inputs": [
        {
          "indexed": true,
          "name": "from",
          "type": "address"
        },
        {
          "indexed": true,
          "name": "to",
          "type": "address"
        },
        {
          "indexed": false,
          "name": "value",
          "type": "uint256"
        }
      ],
      "name": "Transfer",
      "type": "event",
      "signature": "0xddf252ad1be2c89b69c2b068fc378daa952ba7f163c4a11628f55a4df523b3ef"
    },
    {
      "anonymous": false,
      "inputs": [
        {
          "indexed": true,
          "name": "owner",
          "type": "address"
        },
        {
          "indexed": true,
          "name": "spender",
          "type": "address"
        },
        {
          "indexed": false,
          "name": "value",
          "type": "uint256"
        }
      ],
      "name": "Approval",
      "type": "event",
      "signature": "0x8c5be1e5ebec7d5bd14f71427d1e84f3dd0314c0f7b2291e5b200ac8c7c3b925"
    },
    {
      "constant": true,
      "inputs": [
        {
          "name": "_a",
          "type": "string"
        },
        {
          "name": "_b",
          "type": "string"
        }
      ],
      "name": "concat",
      "outputs": [
        {
          "name": "",
          "type": "string"
        }
      ],
      "payable": false,
      "stateMutability": "pure",
      "type": "function",
      "signature": "0x89c19ddb"
    },
    {
      "constant": false,
      "inputs": [
        {
          "name": "_amount",
          "type": "uint256"
        }
      ],
      "name": "wrap",
      "outputs": [],
      "payable": false,
      "stateMutability": "nonpayable",
      "type": "function",
      "signature": "0xea598cb0"
    },
    {
      "constant": false,
      "inputs": [
        {
          "name": "_amount",
          "type": "uint256"
        }
      ],
      "name": "unwrap",
      "outputs": [],
      "payable": false,
      "stateMutability": "nonpayable",
      "type": "function",
      "signature": "0xde0e9a3e"
    },
    {
      "constant": false,
      "inputs": [
        {
          "name": "_recipient",
          "type": "address"
        },
        {
          "name": "_amount",
          "type": "uint256"
        }
      ],
      "name": "transfer",
      "outputs": [
        {
          "name": "",
          "type": "bool"
        }
      ],
      "payable": false,
      "stateMutability": "nonpayable",
      "type": "function",
      "signature": "0xa9059cbb"
    },
    {
      "constant": false,
      "inputs": [
        {
          "name": "_spender",
          "type": "address"
        },
        {
          "name": "_value",
          "type": "uint256"
        }
      ],
      "name": "approve",
      "outputs": [
        {
          "name": "",
          "type": "bool"
        }
      ],
      "payable": false,
      "stateMutability": "nonpayable",
      "type": "function",
      "signature": "0x095ea7b3"
    },
    {
      "constant": false,
      "inputs": [
        {
          "name": "_sender",
          "type": "address"
        },
        {
          "name": "_recipient",
          "type": "address"
        },
        {
          "name": "_amount",
          "type": "uint256"
        }
      ],
      "name": "transferFrom",
      "outputs": [
        {
          "name": "",
          "type": "bool"
        }
      ],
      "payable": false,
      "stateMutability": "nonpayable",
      "type": "function",
      "signature": "0x23b872dd"
    },
    {
      "constant": false,
      "inputs": [
        {
          "name": "_account",
          "type": "address"
        }
      ],
      "name": "update",
      "outputs": [],
      "payable": false,
      "stateMutability": "nonpayable",
      "type": "function",
      "signature": "0x1c1b8772"
    },
    {
      "constant": true,
      "inputs": [
        {
          "name": "_account",
          "type": "address"
        }
      ],
      "name": "accrued",
      "outputs": [
        {
          "name": "",
          "type": "uint256"
        }
      ],
      "payable": false,
      "stateMutability": "view",
      "type": "function",
      "signature": "0xb148440f"
    },
    {
      "constant": false,
      "inputs": [
        {
          "name": "_charity",
          "type": "address"
        },
        {
          "name": "_amount",
          "type": "uint256"
        },
        {
          "name": "_comment",
          "type": "string"
        }
      ],
      "name": "vote",
      "outputs": [],
      "payable": false,
      "stateMutability": "nonpayable",
      "type": "function",
      "signature": "0xa843f3bc"
    },
    {
      "constant": false,
      "inputs": [],
      "name": "epochDonate",
      "outputs": [],
      "payable": false,
      "stateMutability": "nonpayable",
      "type": "function",
      "signature": "0xef84022c"
    }
  ],
  "bytecode": "0x60806040523480156200001157600080fd5b506040516200380c3803806200380c83398101806040526101008110156200003857600080fd5b8101908080516401000000008111156200005157600080fd5b820160208101848111156200006557600080fd5b81516401000000008111828201871017156200008057600080fd5b505092919060200180516401000000008111156200009d57600080fd5b82016020810184811115620000b157600080fd5b8151640100000000811182820187101715620000cc57600080fd5b505060208083015160408401516060850151608086015160a087015160c0909701518a51969950939750919590949193909291899189918991620001169160039186019062000595565b5081516200012c90600490602085019062000595565b506005805460ff191660ff929092169190911790555050600160a060020a0383166200015757600080fd5b8181106200016457600080fd5b620001b4886040518060400160405280600981526020017f202d20566f74696e6700000000000000000000000000000000000000000000008152506200039b640100000000026401000000009004565b62000204886040518060400160405280600581526020017f5f564f54450000000000000000000000000000000000000000000000000000008152506200039b640100000000026401000000009004565b601260405162000214906200061a565b60ff82166040820152606080825284519082015283518190602080830191608084019188019080838360005b838110156200025a57818101518382015260200162000240565b50505050905090810190601f168015620002885780820380516001836020036101000a031916815260200191505b50838103825285518152855160209182019187019080838360005b83811015620002bd578181015183820152602001620002a3565b50505050905090810190601f168015620002eb5780820380516001836020036101000a031916815260200191505b5095505050505050604051809103906000f08015801562000310573d6000803e3d6000fd5b506005805461010060a860020a031916610100600160a060020a039384160217905560068054600160a060020a031990811688841617909155600780548216878416179055600880549091169185169190911790556009829055600a819055620003894283640100000000620005198102620015541704565b600c5550620006489650505050505050565b6060808390506060839050606081518351016040519080825280601f01601f191660200182016040528015620003d8576020820181803883390190505b509050806000805b85518110156200047457858181518110620003f757fe5b60200101517f010000000000000000000000000000000000000000000000000000000000000090047f0100000000000000000000000000000000000000000000000000000000000000028383806001019450815181106200045457fe5b6020010190600160f860020a031916908160001a905350600101620003e0565b5060005b84518110156200050c578481815181106200048f57fe5b60200101517f010000000000000000000000000000000000000000000000000000000000000090047f010000000000000000000000000000000000000000000000000000000000000002838380600101945081518110620004ec57fe5b6020010190600160f860020a031916908160001a90535060010162000478565b5090979650505050505050565b6000828201838110156200058e57604080517f08c379a000000000000000000000000000000000000000000000000000000000815260206004820152601b60248201527f536166654d6174683a206164646974696f6e206f766572666c6f770000000000604482015290519081900360640190fd5b9392505050565b828054600181600116156101000203166002900490600052602060002090601f016020900481019282601f10620005d857805160ff191683800117855562000608565b8280016001018555821562000608579182015b8281111562000608578251825591602001919060010190620005eb565b506200061692915062000628565b5090565b6115ae806200225e83390190565b6200064591905b808211156200061657600081556001016200062f565b90565b611c0680620006586000396000f3fe608060405234801561001057600080fd5b5060043610610202576000357c01000000000000000000000000000000000000000000000000000000009004806389c19ddb1161012c578063c89039c5116100bf578063ea598cb01161008e578063ea598cb0146106df578063ef84022c146106fc578063f69e204614610704578063f96dae0a1461070c57610202565b8063c89039c514610666578063d8bff5a51461066e578063dd62ed3e14610694578063de0e9a3e146106c257610202565b8063a843f3bc116100fb578063a843f3bc14610587578063a9059cbb1461060c578063aea0e78b14610638578063b148440f1461064057610202565b806389c19ddb1461041e578063934aa0231461054b57806395d89b4114610553578063a457c2d71461055b57610202565b806323b872dd116101a4578063395093511161017357806339509351146103bc57806357d775f8146103e857806370a08231146103f0578063895a15d31461041657610202565b806323b872dd1461033a5780632e51c084146103705780632ee29fac14610396578063313ce5671461039e57610202565b806318160ddd116101e057806318160ddd146102de5780631c1b8772146102e65780631ec14c171461030e5780631f7b41b01461033257610202565b806306fdde0314610207578063095ea7b314610284578063101d9842146102c4575b600080fd5b61020f610714565b6040805160208082528351818301528351919283929083019185019080838360005b83811015610249578181015183820152602001610231565b50505050905090810190601f1680156102765780820380516001836020036101000a031916815260200191505b509250505060405180910390f35b6102b06004803603604081101561029a57600080fd5b50600160a060020a0381351690602001356107aa565b604080519115158252519081900360200190f35b6102cc6107d4565b60408051918252519081900360200190f35b6102cc6107da565b61030c600480360360208110156102fc57600080fd5b5035600160a060020a03166107e0565b005b6103166108f3565b60408051600160a060020a039092168252519081900360200190f35b6102cc610902565b6102b06004803603606081101561035057600080fd5b50600160a060020a03813581169160208101359091169060400135610908565b6102cc6004803603602081101561038657600080fd5b5035600160a060020a0316610932565b610316610944565b6103a6610953565b6040805160ff9092168252519081900360200190f35b6102b0600480360360408110156103d257600080fd5b50600160a060020a03813516906020013561095c565b6102cc6109a6565b6102cc6004803603602081101561040657600080fd5b5035600160a060020a03166109ac565b6102cc6109c7565b61020f6004803603604081101561043457600080fd5b81019060208101813564010000000081111561044f57600080fd5b82018360208201111561046157600080fd5b8035906020019184600183028401116401000000008311171561048357600080fd5b91908080601f01602080910402602001604051908101604052809392919081815260200183838082843760009201919091525092959493602081019350359150506401000000008111156104d657600080fd5b8201836020820111156104e857600080fd5b8035906020019184600183028401116401000000008311171561050a57600080fd5b91908080601f0160208091040260200160405190810160405280939291908181526020018383808284376000920191909152509295506109cd945050505050565b610316610b02565b61020f610b11565b6102b06004803603604081101561057157600080fd5b50600160a060020a038135169060200135610b72565b61030c6004803603606081101561059d57600080fd5b600160a060020a03823516916020810135918101906060810160408201356401000000008111156105cd57600080fd5b8201836020820111156105df57600080fd5b8035906020019184600183028401116401000000008311171561060157600080fd5b509092509050610bae565b6102b06004803603604081101561062257600080fd5b50600160a060020a038135169060200135610d79565b6102cc610d97565b6102cc6004803603602081101561065657600080fd5b5035600160a060020a0316610d9d565b610316610de1565b6102cc6004803603602081101561068457600080fd5b5035600160a060020a0316610df0565b6102cc600480360360408110156106aa57600080fd5b50600160a060020a0381358116916020013516610e02565b61030c600480360360208110156106d857600080fd5b5035610e2d565b61030c600480360360208110156106f557600080fd5b5035610fcd565b61030c61122c565b6103166114d2565b6103166114e1565b60038054604080516020601f60026000196101006001881615020190951694909404938401819004810282018101909252828152606093909290918301828280156107a05780601f10610775576101008083540402835291602001916107a0565b820191906000526020600020905b81548152906001019060200180831161078357829003601f168201915b5050505050905090565b60006107b5336107e0565b6107be836107e0565b6107c883836114f5565b50600190505b92915050565b600a5481565b60025490565b60006107eb82610d9d565b604080518281529051919250600160a060020a038416917f603f16706d8facbdadddadc2f84737909caebc5d1f3adf53d69014f2d908611c9181900360200190a2600554604080517f40c10f19000000000000000000000000000000000000000000000000000000008152600160a060020a038581166004830152602482018590529151610100909304909116916340c10f19916044808201926020929091908290030181600087803b1580156108a157600080fd5b505af11580156108b5573d6000803e3d6000fd5b505050506040513d60208110156108cb57600080fd5b50516108d657600080fd5b50600160a060020a03166000908152600b60205260409020439055565b600d54600160a060020a031681565b600f5481565b6000610913846107e0565b61091c836107e0565b610927848484611502565b506001949350505050565b600b6020526000908152604090205481565b600e54600160a060020a031681565b60055460ff1690565b336000818152600160209081526040808320600160a060020a0387168452909152812054909161099d918590610998908663ffffffff61155416565b6115b8565b50600192915050565b60095481565b600160a060020a031660009081526020819052604090205490565b60105481565b6060808390506060839050606081518351016040519080825280601f01601f191660200182016040528015610a09576020820181803883390190505b509050806000805b8551811015610a8157858181518110610a2657fe5b602001015160f860020a900460f860020a02838380600101945081518110610a4a57fe5b60200101907effffffffffffffffffffffffffffffffffffffffffffffffffffffffffffff1916908160001a905350600101610a11565b5060005b8451811015610af557848181518110610a9a57fe5b602001015160f860020a900460f860020a02838380600101945081518110610abe57fe5b60200101907effffffffffffffffffffffffffffffffffffffffffffffffffffffffffffff1916908160001a905350600101610a85565b5090979650505050505050565b600854600160a060020a031681565b60048054604080516020601f60026000196101006001881615020190951694909404938401819004810282018101909252828152606093909290918301828280156107a05780601f10610775576101008083540402835291602001916107a0565b336000818152600160209081526040808320600160a060020a0387168452909152812054909161099d918590610998908663ffffffff6116aa16565b600160a060020a038416610bc157600080fd5b610bc961170a565b610bd2336107e0565b600554604080517f9dc29fac000000000000000000000000000000000000000000000000000000008152336004820152602481018690529051610100909204600160a060020a031691639dc29fac9160448082019260009290919082900301818387803b158015610c4257600080fd5b505af1158015610c56573d6000803e3d6000fd5b505050600160a060020a038516600090815260116020526040902054610c8391508463ffffffff61155416565b600160a060020a0385166000908152601160205260409020819055600f541015610ce557600e805473ffffffffffffffffffffffffffffffffffffffff1916600160a060020a038616908117909155600090815260116020526040902054600f555b600160a060020a038416600081815260116020908152604091829020548251878152918201819052606092820183815292820185905233927fbb8fafc0c10a875f2022cef6f7cdd042f0f5029bcb96f583d99b1d64511a5b87928892918891889160808201848480828437600083820152604051601f909101601f191690920182900397509095505050505050a350505050565b6000610d84336107e0565b610d8d836107e0565b6107c8838361178a565b600c5481565b60006107ce610dab836109ac565b600160a060020a0384166000908152600b6020526040902054610dd590439063ffffffff6116aa16565b9063ffffffff61179716565b600654600160a060020a031681565b60116020526000908152604090205481565b600160a060020a03918216600090815260016020908152604080832093909416825291909152205490565b610e36336109ac565b811115610e4257600080fd5b610e4b336107e0565b610e5533826117f3565b600754604080517f852a12e3000000000000000000000000000000000000000000000000000000008152600481018490529051600160a060020a039092169163852a12e3916024808201926020929091908290030181600087803b158015610ebc57600080fd5b505af1158015610ed0573d6000803e3d6000fd5b505050506040513d6020811015610ee657600080fd5b505115610ef257600080fd5b600654604080517fa9059cbb000000000000000000000000000000000000000000000000000000008152336004820152602481018490529051600160a060020a039092169163a9059cbb916044808201926020929091908290030181600087803b158015610f5f57600080fd5b505af1158015610f73573d6000803e3d6000fd5b505050506040513d6020811015610f8957600080fd5b5051610f9457600080fd5b60408051828152905133917f95ae649bfaaef9def56a52f4fb2d9e8fa5496bb7082930e442c74cc76b03dcb3919081900360200190a250565b600654604080517f23b872dd000000000000000000000000000000000000000000000000000000008152336004820152306024820152604481018490529051600160a060020a03909216916323b872dd916064808201926020929091908290030181600087803b15801561104057600080fd5b505af1158015611054573d6000803e3d6000fd5b505050506040513d602081101561106a57600080fd5b505161107557600080fd5b600654600754604080517f095ea7b3000000000000000000000000000000000000000000000000000000008152600160a060020a039283166004820152602481018590529051919092169163095ea7b39160448083019260209291908290030181600087803b1580156110e757600080fd5b505af11580156110fb573d6000803e3d6000fd5b505050506040513d602081101561111157600080fd5b505161111c57600080fd5b600754604080517fa0712d68000000000000000000000000000000000000000000000000000000008152600481018490529051600160a060020a039092169163a0712d68916024808201926020929091908290030181600087803b15801561118357600080fd5b505af1158015611197573d6000803e3d6000fd5b505050506040513d60208110156111ad57600080fd5b5051156111b957600080fd5b336000908152600b60205260409020546111e057336000908152600b602052604090204390555b6111e9336107e0565b6111f333826118cf565b60408051828152905133917f4700c1726b4198077cd40320a32c45265a1910521eb0ef713dd1d8412413d7fc919081900360200190a250565b600c5442101561123b57600080fd5b61124361170a565b60095461125790429063ffffffff61155416565b600c5560006113056112676107da565b600754604080517f3af9e6690000000000000000000000000000000000000000000000000000000081523060048201529051600160a060020a0390921691633af9e669916024808201926020929091908290030181600087803b1580156112cd57600080fd5b505af11580156112e1573d6000803e3d6000fd5b505050506040513d60208110156112f757600080fd5b50519063ffffffff6116aa16565b600754604080517f852a12e3000000000000000000000000000000000000000000000000000000008152600481018490529051929350600160a060020a039091169163852a12e3916024808201926020929091908290030181600087803b15801561136f57600080fd5b505af1158015611383573d6000803e3d6000fd5b505050506040513d602081101561139957600080fd5b5051156113a557600080fd5b600654600854604080517fa9059cbb000000000000000000000000000000000000000000000000000000008152600160a060020a039283166004820152602481018590529051919092169163a9059cbb9160448083019260209291908290030181600087803b15801561141757600080fd5b505af115801561142b573d6000803e3d6000fd5b505050506040513d602081101561144157600080fd5b505161144c57600080fd5b600854604080518381529051600160a060020a03909216917f2a01595cddf097c90216094025db714da3f4e5bd8877b56ba86a24ecead8e5439181900360200190a2600d54600160a060020a0316156114cf57600d546008805473ffffffffffffffffffffffffffffffffffffffff1916600160a060020a039092169190911790555b50565b600754600160a060020a031681565b6005546101009004600160a060020a031681565b600061099d3384846115b8565b600061150f8484846119c2565b600160a060020a03841660009081526001602090815260408083203380855292529091205461154a918691610998908663ffffffff6116aa16565b5060019392505050565b6000828201838110156115b1576040805160e560020a62461bcd02815260206004820152601b60248201527f536166654d6174683a206164646974696f6e206f766572666c6f770000000000604482015290519081900360640190fd5b9392505050565b600160a060020a0383166116005760405160e560020a62461bcd028152600401808060200182810382526024815260200180611bb76024913960400191505060405180910390fd5b600160a060020a0382166116485760405160e560020a62461bcd028152600401808060200182810382526022815260200180611b2e6022913960400191505060405180910390fd5b600160a060020a03808416600081815260016020908152604080832094871680845294825291829020859055815185815291517f8c5be1e5ebec7d5bd14f71427d1e84f3dd0314c0f7b2291e5b200ac8c7c3b9259281900390910190a3505050565b600082821115611704576040805160e560020a62461bcd02815260206004820152601e60248201527f536166654d6174683a207375627472616374696f6e206f766572666c6f770000604482015290519081900360640190fd5b50900390565b600a54600c5461171f9163ffffffff6116aa16565b421180156117315750601054600c5414155b1561178857600c54601055600e8054600d8054600160a060020a0380841673ffffffffffffffffffffffffffffffffffffffff19928316179283905592169092556000600f81905591168152601160205260408120555b565b600061099d3384846119c2565b6000826117a6575060006107ce565b828202828482816117b357fe5b04146115b15760405160e560020a62461bcd028152600401808060200182810382526021815260200180611b506021913960400191505060405180910390fd5b600160a060020a03821661183b5760405160e560020a62461bcd028152600401808060200182810382526021815260200180611b716021913960400191505060405180910390fd5b60025461184e908263ffffffff6116aa16565b600255600160a060020a03821660009081526020819052604090205461187a908263ffffffff6116aa16565b600160a060020a038316600081815260208181526040808320949094558351858152935191937fddf252ad1be2c89b69c2b068fc378daa952ba7f163c4a11628f55a4df523b3ef929081900390910190a35050565b600160a060020a03821661192d576040805160e560020a62461bcd02815260206004820152601f60248201527f45524332303a206d696e7420746f20746865207a65726f206164647265737300604482015290519081900360640190fd5b600254611940908263ffffffff61155416565b600255600160a060020a03821660009081526020819052604090205461196c908263ffffffff61155416565b600160a060020a0383166000818152602081815260408083209490945583518581529351929391927fddf252ad1be2c89b69c2b068fc378daa952ba7f163c4a11628f55a4df523b3ef9281900390910190a35050565b600160a060020a038316611a0a5760405160e560020a62461bcd028152600401808060200182810382526025815260200180611b926025913960400191505060405180910390fd5b600160a060020a038216611a525760405160e560020a62461bcd028152600401808060200182810382526023815260200180611b0b6023913960400191505060405180910390fd5b600160a060020a038316600090815260208190526040902054611a7b908263ffffffff6116aa16565b600160a060020a038085166000908152602081905260408082209390935590841681522054611ab0908263ffffffff61155416565b600160a060020a038084166000818152602081815260409182902094909455805185815290519193928716927fddf252ad1be2c89b69c2b068fc378daa952ba7f163c4a11628f55a4df523b3ef92918290030190a350505056fe45524332303a207472616e7366657220746f20746865207a65726f206164647265737345524332303a20617070726f766520746f20746865207a65726f2061646472657373536166654d6174683a206d756c7469706c69636174696f6e206f766572666c6f7745524332303a206275726e2066726f6d20746865207a65726f206164647265737345524332303a207472616e736665722066726f6d20746865207a65726f206164647265737345524332303a20617070726f76652066726f6d20746865207a65726f2061646472657373a165627a7a723058201f34caa354ad8bafb04d80e36c89a613258e078a4a32ff73de019aa3b930a5eb002960806040523480156200001157600080fd5b50604051620015ae380380620015ae833981018060405260608110156200003757600080fd5b8101908080516401000000008111156200005057600080fd5b820160208101848111156200006457600080fd5b81516401000000008111828201871017156200007f57600080fd5b505092919060200180516401000000008111156200009c57600080fd5b82016020810184811115620000b057600080fd5b8151640100000000811182820187101715620000cb57600080fd5b50506020909101519092509050828282620000ef336401000000006200014c810204565b825162000104906004906020860190620002c8565b5081516200011a906005906020850190620002c8565b506006805460ff191660ff929092169190911761010060a860020a0319166101003302179055506200036d9350505050565b6200016760038264010000000062000fd36200019e82021704565b604051600160a060020a038216907f6ae172837ea30b801fbfcdd4108aa1d5bf8ff775444fd70256b44e6bf3dfc3f690600090a250565b620001b3828264010000000062000245810204565b156200022057604080517f08c379a000000000000000000000000000000000000000000000000000000000815260206004820152601f60248201527f526f6c65733a206163636f756e7420616c72656164792068617320726f6c6500604482015290519081900360640190fd5b600160a060020a0316600090815260209190915260409020805460ff19166001179055565b6000600160a060020a038216620002a8576040517f08c379a00000000000000000000000000000000000000000000000000000000081526004018080602001828103825260228152602001806200158c6022913960400191505060405180910390fd5b50600160a060020a03166000908152602091909152604090205460ff1690565b828054600181600116156101000203166002900490600052602060002090601f016020900481019282601f106200030b57805160ff19168380011785556200033b565b828001600101855582156200033b579182015b828111156200033b5782518255916020019190600101906200031e565b50620003499291506200034d565b5090565b6200036a91905b8082111562000349576000815560010162000354565b90565b61120f806200037d6000396000f3fe608060405234801561001057600080fd5b506004361061013e576000357c01000000000000000000000000000000000000000000000000000000009004806370a08231116100ca578063a457c2d71161008e578063a457c2d714610360578063a9059cbb1461038c578063aa271e1a146103b8578063dd62ed3e146103de578063e89d4e5b1461040c5761013e565b806370a08231146102d657806395d89b41146102fc578063983b2d5614610304578063986502751461032c5780639dc29fac146103345761013e565b8063313ce56711610111578063313ce56714610250578063395093511461026e57806340c10f191461029a57806348b15166146102c657806357e871e7146102ce5761013e565b806306fdde0314610143578063095ea7b3146101c057806318160ddd1461020057806323b872dd1461021a575b600080fd5b61014b610430565b6040805160208082528351818301528351919283929083019185019080838360005b8381101561018557818101518382015260200161016d565b50505050905090810190601f1680156101b25780820380516001836020036101000a031916815260200191505b509250505060405180910390f35b6101ec600480360360408110156101d657600080fd5b50600160a060020a0381351690602001356104c6565b604080519115158252519081900360200190f35b61020861055b565b60408051918252519081900360200190f35b6101ec6004803603606081101561023057600080fd5b50600160a060020a03813581169160208101359091169060400135610561565b6102586105fd565b6040805160ff9092168252519081900360200190f35b6101ec6004803603604081101561028457600080fd5b50600160a060020a038135169060200135610606565b6101ec600480360360408110156102b057600080fd5b50600160a060020a038135169060200135610650565b6102086106a3565b6102086106a7565b610208600480360360208110156102ec57600080fd5b5035600160a060020a03166106ab565b61014b610762565b61032a6004803603602081101561031a57600080fd5b5035600160a060020a03166107c3565b005b61032a610816565b61032a6004803603604081101561034a57600080fd5b50600160a060020a038135169060200135610821565b6101ec6004803603604081101561037657600080fd5b50600160a060020a038135169060200135610876565b6101ec600480360360408110156103a257600080fd5b50600160a060020a0381351690602001356108b2565b6101ec600480360360208110156103ce57600080fd5b5035600160a060020a031661093d565b610208600480360360408110156103f457600080fd5b50600160a060020a0381358116916020013516610950565b61041461097b565b60408051600160a060020a039092168252519081900360200190f35b60048054604080516020601f60026000196101006001881615020190951694909404938401819004810282018101909252828152606093909290918301828280156104bc5780601f10610491576101008083540402835291602001916104bc565b820191906000526020600020905b81548152906001019060200180831161049f57829003601f168201915b5050505050905090565b600654604080517f1c1b877200000000000000000000000000000000000000000000000000000000815233600482015290516000926101009004600160a060020a031691631c1b8772916024808301928692919082900301818387803b15801561052f57600080fd5b505af1158015610543573d6000803e3d6000fd5b50505050610551838361098f565b5060019392505050565b60025490565b600654604080517f1c1b8772000000000000000000000000000000000000000000000000000000008152600160a060020a0386811660048301529151600093610100900490921691631c1b877291602480820192869290919082900301818387803b1580156105cf57600080fd5b505af11580156105e3573d6000803e3d6000fd5b505050506105f284848461099c565b506001949350505050565b60065460ff1690565b336000818152600160209081526040808320600160a060020a03871684529091528120549091610647918590610642908663ffffffff6109e416565b610a48565b50600192915050565b600061065b3361093d565b6106995760405160e560020a62461bcd0281526004018080602001828103825260308152602001806111076030913960400191505060405180910390fd5b6106478383610b3a565b4290565b4390565b600654604080517fb148440f000000000000000000000000000000000000000000000000000000008152600160a060020a038481166004830152915160009361075c93610100909104169163b148440f916024808301926020929190829003018186803b15801561071b57600080fd5b505afa15801561072f573d6000803e3d6000fd5b505050506040513d602081101561074557600080fd5b505161075084610c2d565b9063ffffffff6109e416565b92915050565b60058054604080516020601f60026000196101006001881615020190951694909404938401819004810282018101909252828152606093909290918301828280156104bc5780601f10610491576101008083540402835291602001916104bc565b6107cc3361093d565b61080a5760405160e560020a62461bcd0281526004018080602001828103825260308152602001806111076030913960400191505060405180910390fd5b61081381610c48565b50565b61081f33610c90565b565b61082a3361093d565b6108685760405160e560020a62461bcd0281526004018080602001828103825260308152602001806111076030913960400191505060405180910390fd5b6108728282610cd8565b5050565b336000818152600160209081526040808320600160a060020a03871684529091528120549091610647918590610642908663ffffffff610db416565b600654604080517f1c1b877200000000000000000000000000000000000000000000000000000000815233600482015290516000926101009004600160a060020a031691631c1b8772916024808301928692919082900301818387803b15801561091b57600080fd5b505af115801561092f573d6000803e3d6000fd5b505050506105518383610e14565b600061075c60038363ffffffff610e2116565b600160a060020a03918216600090815260016020908152604080832093909416825291909152205490565b6006546101009004600160a060020a031681565b6000610647338484610a48565b60006109a9848484610e8b565b600160a060020a038416600090815260016020908152604080832033808552925290912054610551918691610642908663ffffffff610db416565b600082820183811015610a41576040805160e560020a62461bcd02815260206004820152601b60248201527f536166654d6174683a206164646974696f6e206f766572666c6f770000000000604482015290519081900360640190fd5b9392505050565b600160a060020a038316610a905760405160e560020a62461bcd0281526004018080602001828103825260248152602001806111c06024913960400191505060405180910390fd5b600160a060020a038216610ad85760405160e560020a62461bcd0281526004018080602001828103825260228152602001806110e56022913960400191505060405180910390fd5b600160a060020a03808416600081815260016020908152604080832094871680845294825291829020859055815185815291517f8c5be1e5ebec7d5bd14f71427d1e84f3dd0314c0f7b2291e5b200ac8c7c3b9259281900390910190a3505050565b600160a060020a038216610b98576040805160e560020a62461bcd02815260206004820152601f60248201527f45524332303a206d696e7420746f20746865207a65726f206164647265737300604482015290519081900360640190fd5b600254610bab908263ffffffff6109e416565b600255600160a060020a038216600090815260208190526040902054610bd7908263ffffffff6109e416565b600160a060020a0383166000818152602081815260408083209490945583518581529351929391927fddf252ad1be2c89b69c2b068fc378daa952ba7f163c4a11628f55a4df523b3ef9281900390910190a35050565b600160a060020a031660009081526020819052604090205490565b610c5960038263ffffffff610fd316565b604051600160a060020a038216907f6ae172837ea30b801fbfcdd4108aa1d5bf8ff775444fd70256b44e6bf3dfc3f690600090a250565b610ca160038263ffffffff61105716565b604051600160a060020a038216907fe94479a9f7e1952cc78f2d6baab678adc1b772d936c6583def489e524cb6669290600090a250565b600160a060020a038216610d205760405160e560020a62461bcd02815260040180806020018281038252602181526020018061117a6021913960400191505060405180910390fd5b600254610d33908263ffffffff610db416565b600255600160a060020a038216600090815260208190526040902054610d5f908263ffffffff610db416565b600160a060020a038316600081815260208181526040808320949094558351858152935191937fddf252ad1be2c89b69c2b068fc378daa952ba7f163c4a11628f55a4df523b3ef929081900390910190a35050565b600082821115610e0e576040805160e560020a62461bcd02815260206004820152601e60248201527f536166654d6174683a207375627472616374696f6e206f766572666c6f770000604482015290519081900360640190fd5b50900390565b6000610647338484610e8b565b6000600160a060020a038216610e6b5760405160e560020a62461bcd0281526004018080602001828103825260228152602001806111586022913960400191505060405180910390fd5b50600160a060020a03166000908152602091909152604090205460ff1690565b600160a060020a038316610ed35760405160e560020a62461bcd02815260040180806020018281038252602581526020018061119b6025913960400191505060405180910390fd5b600160a060020a038216610f1b5760405160e560020a62461bcd0281526004018080602001828103825260238152602001806110c26023913960400191505060405180910390fd5b600160a060020a038316600090815260208190526040902054610f44908263ffffffff610db416565b600160a060020a038085166000908152602081905260408082209390935590841681522054610f79908263ffffffff6109e416565b600160a060020a038084166000818152602081815260409182902094909455805185815290519193928716927fddf252ad1be2c89b69c2b068fc378daa952ba7f163c4a11628f55a4df523b3ef92918290030190a3505050565b610fdd8282610e21565b15611032576040805160e560020a62461bcd02815260206004820152601f60248201527f526f6c65733a206163636f756e7420616c72656164792068617320726f6c6500604482015290519081900360640190fd5b600160a060020a0316600090815260209190915260409020805460ff19166001179055565b6110618282610e21565b61109f5760405160e560020a62461bcd0281526004018080602001828103825260218152602001806111376021913960400191505060405180910390fd5b600160a060020a0316600090815260209190915260409020805460ff1916905556fe45524332303a207472616e7366657220746f20746865207a65726f206164647265737345524332303a20617070726f766520746f20746865207a65726f20616464726573734d696e746572526f6c653a2063616c6c657220646f6573206e6f74206861766520746865204d696e74657220726f6c65526f6c65733a206163636f756e7420646f6573206e6f74206861766520726f6c65526f6c65733a206163636f756e7420697320746865207a65726f206164647265737345524332303a206275726e2066726f6d20746865207a65726f206164647265737345524332303a207472616e736665722066726f6d20746865207a65726f206164647265737345524332303a20617070726f76652066726f6d20746865207a65726f2061646472657373a165627a7a72305820e8ee093661b142d439a107075dce6aa2adf6405eda75edc2408fa173b34768570029526f6c65733a206163636f756e7420697320746865207a65726f2061646472657373",
  "source": "pragma solidity ^0.5.0;\n\n// Everyone who deposits funds is issued time tokens.\n// 1 CHAR token is equivalent to 1 DAI for 1 block and represents your voting power\n// There are three phases - voting, deposit and donate\n// In the voting phase CHAR holders vote on the address they would like to receive funds from the next deposit phase.\n// In the deposit phases people can depositnpm\n// Each epoch (e.g. 1000 blocks)\n\nimport 'openzeppelin-solidity/contracts/token/ERC20/ERC20.sol';\nimport 'openzeppelin-solidity/contracts/token/ERC20/ERC20Detailed.sol';\nimport 'openzeppelin-solidity/contracts/math/SafeMath.sol';\nimport './GovernanceToken.sol';\nimport './ICompound.sol';\nimport './IDeFiDonate.sol';\n\n// Rinkeby deployment parameters\n//\"GDAI\", \"GDAI\", 18, \"0x5592ec0cfb4dbc12d3ab100b257153436a1f0fea\", \"0x6D7F0754FFeb405d23C51CE938289d4835bE3b14\", \"0x85523D0f76B3A6C3c05b2CfBb0558B45541f100B\", 100\n\n\n// Represents wrapped DAI that has been deposited to Compound\n// Can be freely transferred as an ERC20\n// Wrapping / Unwrapping can happen at any time\n\ncontract DeFiDonate is ERC20, ERC20Detailed {\n    using SafeMath for uint256;\n\n    GovernanceToken public governanceToken; // token which accrues to holders of wrapped DAI\n    ERC20 public depositToken; // DAI token address\n    ICompound public compound; // Address of compound contract\n\n    address public charity; // Address which will receive funds at the end of the current epoch\n    uint256 public epochLength; // Length of each epoch (e.g. 1 month)\n    uint256 public coolOffLength; // Period of time that people have to withdraw their funds if they don't like the winning charity\n\n    mapping (address => uint256) public updatedBlock; // Last time that governanceToken balance was updated for an address\n\n    uint256 public nextEpoch; // Timestamp that next epoch starts on\n\n    address public chosenCharity; // The charity that will be paid to in the following epoch\n    address public largestCharity; // Charity currently winning the voting process\n    uint256 public largestVote; // Number of votes the above charity has\n    uint256 public rolledEpoch; // Whether or not the vote has been reset for a particular epoch\n    mapping (address => uint256) public votes; // Votes for each proposed charity address\n\n    event Accrued(address indexed _account, uint256 _accrued);\n    event Wrapped(address indexed _account, uint256 _amount);\n    event Unwrapped(address indexed _account, uint256 _amount);\n    event Donated(address indexed _charity, uint256 _amount);\n    event Voted(address indexed _voter, address indexed _charity, uint256 _vote, uint256 _voteTotal, string _comment);\n\n    // Capture wrapped charity DAI as a token so it can be transferred / sent\n    // deposit / redeem becomes wrap / unwrap\n    // CharityToken is minted separately\n\n    constructor(string memory _name, string memory _symbol, uint8 _decimals, address _depositToken, address _compound, address _charity, uint256 _epochLength, uint256 _coolOffLength) public\n        ERC20Detailed(_name, _symbol, _decimals)\n    {\n        require(_charity != address(0));\n        require(_coolOffLength < _epochLength);\n        governanceToken = new GovernanceToken(concat(_name, \" - Voting\"), concat(_symbol, \"_VOTE\"), 18);\n        depositToken = ERC20(_depositToken);\n        compound = ICompound(_compound);\n        charity = _charity;\n        epochLength = _epochLength;\n        coolOffLength = _coolOffLength;\n        nextEpoch = block.timestamp.add(epochLength);\n    }\n\n    function concat(string memory _a, string memory _b) public pure returns (string memory) {\n        bytes memory bytes_a = bytes(_a);\n        bytes memory bytes_b = bytes(_b);\n        string memory length_ab = new string(bytes_a.length + bytes_b.length);\n        bytes memory bytes_c = bytes(length_ab);\n        uint k = 0;\n        for (uint i = 0; i < bytes_a.length; i++) bytes_c[k++] = bytes_a[i];\n        for (uint i = 0; i < bytes_b.length; i++) bytes_c[k++] = bytes_b[i];\n        return string(bytes_c);\n    }\n\n    // Wrap DAI and receive back wrapped tokens on a 1-1 basis\n    function wrap(uint256 _amount) external {\n        require(depositToken.transferFrom(msg.sender, address(this), _amount));\n        require(depositToken.approve(address(compound), _amount));\n        require(compound.mint(_amount) == 0);\n        if (updatedBlock[msg.sender] == 0) {\n            updatedBlock[msg.sender] = block.number;\n        }\n        update(msg.sender);\n        _mint(msg.sender, _amount);\n        emit Wrapped(msg.sender, _amount);\n    }\n\n    // Unwrap your tokens back to DAI - depends on Compound liquidity\n    function unwrap(uint256 _amount) external {\n        require(_amount <= balanceOf(msg.sender));\n        update(msg.sender);\n        _burn(msg.sender, _amount);\n        require(compound.redeemUnderlying(_amount) == 0);\n        require(depositToken.transfer(msg.sender, _amount));\n        emit Unwrapped(msg.sender, _amount);\n    }\n\n    function transfer(address _recipient, uint256 _amount) public returns (bool) {\n        // Ensure that GovernanceToken balances are correctly reflected before executing transfer\n        update(msg.sender);\n        update(_recipient);\n        super.transfer(_recipient, _amount);\n        return true;\n    }\n\n    function approve(address _spender, uint256 _value) public returns (bool) {\n        // Ensure that GovernanceToken balances are correctly reflected before executing transfer\n        update(msg.sender);\n        update(_spender);\n        super.approve(_spender, _value);\n        return true;\n    }\n\n    function transferFrom(address _sender, address _recipient, uint256 _amount) public returns (bool) {\n        // Ensure that GovernanceToken balances are correctly reflected before executing transfer\n        update(_sender);\n        update(_recipient);\n        super.transferFrom(_sender, _recipient, _amount);\n        return true;\n    }\n\n    function update(address _account) public {\n        // Update the GovernanceToken balance for an address - can be called at anytime by anyone\n        uint256 interest = accrued(_account);\n        emit Accrued(_account, interest);\n        require(governanceToken.mint(_account, interest));\n        updatedBlock[_account] = block.number;\n    }\n\n    // Return the amount of GovernanceTokens owed to an account\n    function accrued(address _account) public view returns (uint256) {\n        return block.number.sub(updatedBlock[_account]).mul(balanceOf(_account));\n    }\n\n    // Burn your GovernanceTokens in return for voting for a charity\n    function vote(address _charity, uint256 _amount, string calldata _comment) external {\n        require(_charity != address(0));\n        _rollVote();\n        update(msg.sender);\n        governanceToken.burn(msg.sender, _amount);\n        votes[_charity] = votes[_charity].add(_amount);\n        if (votes[_charity] > largestVote) {\n            largestCharity = _charity;\n            largestVote = votes[_charity];\n        }\n        emit Voted(msg.sender, _charity, _amount, votes[_charity], _comment);\n    }\n\n    function _rollVote() internal {\n        if ((block.timestamp > nextEpoch.sub(coolOffLength)) && (nextEpoch != rolledEpoch)) {\n            rolledEpoch = nextEpoch;\n            chosenCharity = largestCharity;\n            largestCharity = address(0);\n            largestVote = 0;\n            votes[chosenCharity] = 0;\n        }\n    }\n\n    // Can be called by anyone to pay to the current charity and roll over voting to the next epoch\n    function epochDonate() external {\n        require(block.timestamp >= nextEpoch);\n        _rollVote();\n        nextEpoch = block.timestamp.add(epochLength);\n        uint256 interest = compound.balanceOfUnderlying(address(this)).sub(totalSupply());\n        require(compound.redeemUnderlying(interest) == 0);\n        require(depositToken.transfer(charity, interest));\n        emit Donated(charity, interest);\n        if (chosenCharity != address(0)) {\n            charity = chosenCharity;\n        }\n    }\n\n}\n",
  "sourcePath": "/Users/adamdossa/Development/Ethereum/DeFiDonate/contracts/DeFiDonate.sol",
  "compiler": {
    "name": "solc",
    "version": "0.5.8+commit.23d335f2.Emscripten.clang"
  },
  "schemaVersion": "3.0.2",
  "updatedAt": "2019-07-02T01:04:25.227Z",
  "devdoc": {
    "methods": {
      "allowance(address,address)": {
        "details": "See `IERC20.allowance`."
      },
      "balanceOf(address)": {
        "details": "See `IERC20.balanceOf`."
      },
      "decimals()": {
        "details": "Returns the number of decimals used to get its user representation. For example, if `decimals` equals `2`, a balance of `505` tokens should be displayed to a user as `5,05` (`505 / 10 ** 2`).     * Tokens usually opt for a value of 18, imitating the relationship between Ether and Wei.     * > Note that this information is only used for _display_ purposes: it in no way affects any of the arithmetic of the contract, including `IERC20.balanceOf` and `IERC20.transfer`."
      },
      "decreaseAllowance(address,uint256)": {
        "details": "Atomically decreases the allowance granted to `spender` by the caller.     * This is an alternative to `approve` that can be used as a mitigation for problems described in `IERC20.approve`.     * Emits an `Approval` event indicating the updated allowance.     * Requirements:     * - `spender` cannot be the zero address. - `spender` must have allowance for the caller of at least `subtractedValue`."
      },
      "increaseAllowance(address,uint256)": {
        "details": "Atomically increases the allowance granted to `spender` by the caller.     * This is an alternative to `approve` that can be used as a mitigation for problems described in `IERC20.approve`.     * Emits an `Approval` event indicating the updated allowance.     * Requirements:     * - `spender` cannot be the zero address."
      },
      "name()": {
        "details": "Returns the name of the token."
      },
      "symbol()": {
        "details": "Returns the symbol of the token, usually a shorter version of the name."
      },
      "totalSupply()": {
        "details": "See `IERC20.totalSupply`."
      }
    }
  },
  "userdoc": {
    "methods": {}
  }
}