{
  "contractName": "DeFiDonate",
  "abi": [
    {
      "constant": true,
      "inputs": [],
      "name": "name",
      "outputs": [
        {
          "name": "",
          "type": "string"
        }
      ],
      "payable": false,
      "stateMutability": "view",
      "type": "function",
      "signature": "0x06fdde03"
    },
    {
      "constant": true,
      "inputs": [],
      "name": "coolOffLength",
      "outputs": [
        {
          "name": "",
          "type": "uint256"
        }
      ],
      "payable": false,
      "stateMutability": "view",
      "type": "function",
      "signature": "0x101d9842"
    },
    {
      "constant": true,
      "inputs": [],
      "name": "totalSupply",
      "outputs": [
        {
          "name": "",
          "type": "uint256"
        }
      ],
      "payable": false,
      "stateMutability": "view",
      "type": "function",
      "signature": "0x18160ddd"
    },
    {
      "constant": true,
      "inputs": [],
      "name": "chosenCharity",
      "outputs": [
        {
          "name": "",
          "type": "address"
        }
      ],
      "payable": false,
      "stateMutability": "view",
      "type": "function",
      "signature": "0x1ec14c17"
    },
    {
      "constant": true,
      "inputs": [],
      "name": "largestVote",
      "outputs": [
        {
          "name": "",
          "type": "uint256"
        }
      ],
      "payable": false,
      "stateMutability": "view",
      "type": "function",
      "signature": "0x1f7b41b0"
    },
    {
      "constant": true,
      "inputs": [
        {
          "name": "",
          "type": "address"
        }
      ],
      "name": "updatedBlock",
      "outputs": [
        {
          "name": "",
          "type": "uint256"
        }
      ],
      "payable": false,
      "stateMutability": "view",
      "type": "function",
      "signature": "0x2e51c084"
    },
    {
      "constant": true,
      "inputs": [],
      "name": "largestCharity",
      "outputs": [
        {
          "name": "",
          "type": "address"
        }
      ],
      "payable": false,
      "stateMutability": "view",
      "type": "function",
      "signature": "0x2ee29fac"
    },
    {
      "constant": true,
      "inputs": [],
      "name": "decimals",
      "outputs": [
        {
          "name": "",
          "type": "uint8"
        }
      ],
      "payable": false,
      "stateMutability": "view",
      "type": "function",
      "signature": "0x313ce567"
    },
    {
      "constant": false,
      "inputs": [
        {
          "name": "spender",
          "type": "address"
        },
        {
          "name": "addedValue",
          "type": "uint256"
        }
      ],
      "name": "increaseAllowance",
      "outputs": [
        {
          "name": "",
          "type": "bool"
        }
      ],
      "payable": false,
      "stateMutability": "nonpayable",
      "type": "function",
      "signature": "0x39509351"
    },
    {
      "constant": true,
      "inputs": [],
      "name": "epochLength",
      "outputs": [
        {
          "name": "",
          "type": "uint256"
        }
      ],
      "payable": false,
      "stateMutability": "view",
      "type": "function",
      "signature": "0x57d775f8"
    },
    {
      "constant": true,
      "inputs": [
        {
          "name": "account",
          "type": "address"
        }
      ],
      "name": "balanceOf",
      "outputs": [
        {
          "name": "",
          "type": "uint256"
        }
      ],
      "payable": false,
      "stateMutability": "view",
      "type": "function",
      "signature": "0x70a08231"
    },
    {
      "constant": true,
      "inputs": [],
      "name": "rolledEpoch",
      "outputs": [
        {
          "name": "",
          "type": "uint256"
        }
      ],
      "payable": false,
      "stateMutability": "view",
      "type": "function",
      "signature": "0x895a15d3"
    },
    {
      "constant": true,
      "inputs": [],
      "name": "charity",
      "outputs": [
        {
          "name": "",
          "type": "address"
        }
      ],
      "payable": false,
      "stateMutability": "view",
      "type": "function",
      "signature": "0x934aa023"
    },
    {
      "constant": true,
      "inputs": [],
      "name": "symbol",
      "outputs": [
        {
          "name": "",
          "type": "string"
        }
      ],
      "payable": false,
      "stateMutability": "view",
      "type": "function",
      "signature": "0x95d89b41"
    },
    {
      "constant": false,
      "inputs": [
        {
          "name": "spender",
          "type": "address"
        },
        {
          "name": "subtractedValue",
          "type": "uint256"
        }
      ],
      "name": "decreaseAllowance",
      "outputs": [
        {
          "name": "",
          "type": "bool"
        }
      ],
      "payable": false,
      "stateMutability": "nonpayable",
      "type": "function",
      "signature": "0xa457c2d7"
    },
    {
      "constant": true,
      "inputs": [],
      "name": "nextEpoch",
      "outputs": [
        {
          "name": "",
          "type": "uint256"
        }
      ],
      "payable": false,
      "stateMutability": "view",
      "type": "function",
      "signature": "0xaea0e78b"
    },
    {
      "constant": true,
      "inputs": [],
      "name": "depositToken",
      "outputs": [
        {
          "name": "",
          "type": "address"
        }
      ],
      "payable": false,
      "stateMutability": "view",
      "type": "function",
      "signature": "0xc89039c5"
    },
    {
      "constant": true,
      "inputs": [
        {
          "name": "",
          "type": "address"
        }
      ],
      "name": "votes",
      "outputs": [
        {
          "name": "",
          "type": "uint256"
        }
      ],
      "payable": false,
      "stateMutability": "view",
      "type": "function",
      "signature": "0xd8bff5a5"
    },
    {
      "constant": true,
      "inputs": [
        {
          "name": "owner",
          "type": "address"
        },
        {
          "name": "spender",
          "type": "address"
        }
      ],
      "name": "allowance",
      "outputs": [
        {
          "name": "",
          "type": "uint256"
        }
      ],
      "payable": false,
      "stateMutability": "view",
      "type": "function",
      "signature": "0xdd62ed3e"
    },
    {
      "constant": true,
      "inputs": [],
      "name": "compound",
      "outputs": [
        {
          "name": "",
          "type": "address"
        }
      ],
      "payable": false,
      "stateMutability": "view",
      "type": "function",
      "signature": "0xf69e2046"
    },
    {
      "constant": true,
      "inputs": [],
      "name": "governanceToken",
      "outputs": [
        {
          "name": "",
          "type": "address"
        }
      ],
      "payable": false,
      "stateMutability": "view",
      "type": "function",
      "signature": "0xf96dae0a"
    },
    {
      "inputs": [
        {
          "name": "_name",
          "type": "string"
        },
        {
          "name": "_symbol",
          "type": "string"
        },
        {
          "name": "_decimals",
          "type": "uint8"
        },
        {
          "name": "_depositToken",
          "type": "address"
        },
        {
          "name": "_compound",
          "type": "address"
        },
        {
          "name": "_charity",
          "type": "address"
        },
        {
          "name": "_epochLength",
          "type": "uint256"
        },
        {
          "name": "_coolOffLength",
          "type": "uint256"
        }
      ],
      "payable": false,
      "stateMutability": "nonpayable",
      "type": "constructor",
      "signature": "constructor"
    },
    {
      "anonymous": false,
      "inputs": [
        {
          "indexed": true,
          "name": "_account",
          "type": "address"
        },
        {
          "indexed": false,
          "name": "_accrued",
          "type": "uint256"
        }
      ],
      "name": "Accrued",
      "type": "event",
      "signature": "0x603f16706d8facbdadddadc2f84737909caebc5d1f3adf53d69014f2d908611c"
    },
    {
      "anonymous": false,
      "inputs": [
        {
          "indexed": true,
          "name": "_account",
          "type": "address"
        },
        {
          "indexed": false,
          "name": "_amount",
          "type": "uint256"
        }
      ],
      "name": "Wrapped",
      "type": "event",
      "signature": "0x4700c1726b4198077cd40320a32c45265a1910521eb0ef713dd1d8412413d7fc"
    },
    {
      "anonymous": false,
      "inputs": [
        {
          "indexed": true,
          "name": "_account",
          "type": "address"
        },
        {
          "indexed": false,
          "name": "_amount",
          "type": "uint256"
        }
      ],
      "name": "Unwrapped",
      "type": "event",
      "signature": "0x95ae649bfaaef9def56a52f4fb2d9e8fa5496bb7082930e442c74cc76b03dcb3"
    },
    {
      "anonymous": false,
      "inputs": [
        {
          "indexed": true,
          "name": "_charity",
          "type": "address"
        },
        {
          "indexed": false,
          "name": "_amount",
          "type": "uint256"
        }
      ],
      "name": "Donated",
      "type": "event",
      "signature": "0x2a01595cddf097c90216094025db714da3f4e5bd8877b56ba86a24ecead8e543"
    },
    {
      "anonymous": false,
      "inputs": [
        {
          "indexed": true,
          "name": "from",
          "type": "address"
        },
        {
          "indexed": true,
          "name": "to",
          "type": "address"
        },
        {
          "indexed": false,
          "name": "value",
          "type": "uint256"
        }
      ],
      "name": "Transfer",
      "type": "event",
      "signature": "0xddf252ad1be2c89b69c2b068fc378daa952ba7f163c4a11628f55a4df523b3ef"
    },
    {
      "anonymous": false,
      "inputs": [
        {
          "indexed": true,
          "name": "owner",
          "type": "address"
        },
        {
          "indexed": true,
          "name": "spender",
          "type": "address"
        },
        {
          "indexed": false,
          "name": "value",
          "type": "uint256"
        }
      ],
      "name": "Approval",
      "type": "event",
      "signature": "0x8c5be1e5ebec7d5bd14f71427d1e84f3dd0314c0f7b2291e5b200ac8c7c3b925"
    },
    {
      "constant": true,
      "inputs": [
        {
          "name": "_a",
          "type": "string"
        },
        {
          "name": "_b",
          "type": "string"
        }
      ],
      "name": "concat",
      "outputs": [
        {
          "name": "",
          "type": "string"
        }
      ],
      "payable": false,
      "stateMutability": "pure",
      "type": "function",
      "signature": "0x89c19ddb"
    },
    {
      "constant": false,
      "inputs": [
        {
          "name": "_amount",
          "type": "uint256"
        }
      ],
      "name": "wrap",
      "outputs": [],
      "payable": false,
      "stateMutability": "nonpayable",
      "type": "function",
      "signature": "0xea598cb0"
    },
    {
      "constant": false,
      "inputs": [
        {
          "name": "_amount",
          "type": "uint256"
        }
      ],
      "name": "unwrap",
      "outputs": [],
      "payable": false,
      "stateMutability": "nonpayable",
      "type": "function",
      "signature": "0xde0e9a3e"
    },
    {
      "constant": false,
      "inputs": [
        {
          "name": "_recipient",
          "type": "address"
        },
        {
          "name": "_amount",
          "type": "uint256"
        }
      ],
      "name": "transfer",
      "outputs": [
        {
          "name": "",
          "type": "bool"
        }
      ],
      "payable": false,
      "stateMutability": "nonpayable",
      "type": "function",
      "signature": "0xa9059cbb"
    },
    {
      "constant": false,
      "inputs": [
        {
          "name": "_spender",
          "type": "address"
        },
        {
          "name": "_value",
          "type": "uint256"
        }
      ],
      "name": "approve",
      "outputs": [
        {
          "name": "",
          "type": "bool"
        }
      ],
      "payable": false,
      "stateMutability": "nonpayable",
      "type": "function",
      "signature": "0x095ea7b3"
    },
    {
      "constant": false,
      "inputs": [
        {
          "name": "_sender",
          "type": "address"
        },
        {
          "name": "_recipient",
          "type": "address"
        },
        {
          "name": "_amount",
          "type": "uint256"
        }
      ],
      "name": "transferFrom",
      "outputs": [
        {
          "name": "",
          "type": "bool"
        }
      ],
      "payable": false,
      "stateMutability": "nonpayable",
      "type": "function",
      "signature": "0x23b872dd"
    },
    {
      "constant": false,
      "inputs": [
        {
          "name": "_account",
          "type": "address"
        }
      ],
      "name": "update",
      "outputs": [],
      "payable": false,
      "stateMutability": "nonpayable",
      "type": "function",
      "signature": "0x1c1b8772"
    },
    {
      "constant": true,
      "inputs": [
        {
          "name": "_account",
          "type": "address"
        }
      ],
      "name": "accrued",
      "outputs": [
        {
          "name": "",
          "type": "uint256"
        }
      ],
      "payable": false,
      "stateMutability": "view",
      "type": "function",
      "signature": "0xb148440f"
    },
    {
      "constant": false,
      "inputs": [
        {
          "name": "_charity",
          "type": "address"
        },
        {
          "name": "_amount",
          "type": "uint256"
        }
      ],
      "name": "vote",
      "outputs": [],
      "payable": false,
      "stateMutability": "nonpayable",
      "type": "function",
      "signature": "0x5f74bbde"
    },
    {
      "constant": false,
      "inputs": [],
      "name": "epochDonate",
      "outputs": [],
      "payable": false,
      "stateMutability": "nonpayable",
      "type": "function",
      "signature": "0xef84022c"
    }
  ],
  "bytecode": "0x60806040523480156200001157600080fd5b50604051620036f6380380620036f683398101806040526101008110156200003857600080fd5b8101908080516401000000008111156200005157600080fd5b820160208101848111156200006557600080fd5b81516401000000008111828201871017156200008057600080fd5b505092919060200180516401000000008111156200009d57600080fd5b82016020810184811115620000b157600080fd5b8151640100000000811182820187101715620000cc57600080fd5b505060208083015160408401516060850151608086015160a087015160c0909701518a51969950939750919590949193909291899189918991620001169160039186019062000595565b5081516200012c90600490602085019062000595565b506005805460ff191660ff929092169190911790555050600160a060020a0383166200015757600080fd5b8181106200016457600080fd5b620001b4886040518060400160405280600981526020017f202d20566f74696e6700000000000000000000000000000000000000000000008152506200039b640100000000026401000000009004565b62000204886040518060400160405280600581526020017f5f564f54450000000000000000000000000000000000000000000000000000008152506200039b640100000000026401000000009004565b601260405162000214906200061a565b60ff82166040820152606080825284519082015283518190602080830191608084019188019080838360005b838110156200025a57818101518382015260200162000240565b50505050905090810190601f168015620002885780820380516001836020036101000a031916815260200191505b50838103825285518152855160209182019187019080838360005b83811015620002bd578181015183820152602001620002a3565b50505050905090810190601f168015620002eb5780820380516001836020036101000a031916815260200191505b5095505050505050604051809103906000f08015801562000310573d6000803e3d6000fd5b506005805461010060a860020a031916610100600160a060020a039384160217905560068054600160a060020a031990811688841617909155600780548216878416179055600880549091169185169190911790556009829055600a819055620003894283640100000000620005198102620014e81704565b600c5550620006489650505050505050565b6060808390506060839050606081518351016040519080825280601f01601f191660200182016040528015620003d8576020820181803883390190505b509050806000805b85518110156200047457858181518110620003f757fe5b60200101517f010000000000000000000000000000000000000000000000000000000000000090047f0100000000000000000000000000000000000000000000000000000000000000028383806001019450815181106200045457fe5b6020010190600160f860020a031916908160001a905350600101620003e0565b5060005b84518110156200050c578481815181106200048f57fe5b60200101517f010000000000000000000000000000000000000000000000000000000000000090047f010000000000000000000000000000000000000000000000000000000000000002838380600101945081518110620004ec57fe5b6020010190600160f860020a031916908160001a90535060010162000478565b5090979650505050505050565b6000828201838110156200058e57604080517f08c379a000000000000000000000000000000000000000000000000000000000815260206004820152601b60248201527f536166654d6174683a206164646974696f6e206f766572666c6f770000000000604482015290519081900360640190fd5b9392505050565b828054600181600116156101000203166002900490600052602060002090601f016020900481019282601f10620005d857805160ff191683800117855562000608565b8280016001018555821562000608579182015b8281111562000608578251825591602001919060010190620005eb565b506200061692915062000628565b5090565b611584806200217283390190565b6200064591905b808211156200061657600081556001016200062f565b90565b611b1a80620006586000396000f3fe608060405234801561001057600080fd5b5060043610610202576000357c010000000000000000000000000000000000000000000000000000000090048063895a15d31161012c578063c89039c5116100bf578063ea598cb01161008e578063ea598cb014610686578063ef84022c146106a3578063f69e2046146106ab578063f96dae0a146106b357610202565b8063c89039c51461060d578063d8bff5a514610615578063dd62ed3e1461063b578063de0e9a3e1461066957610202565b8063a457c2d7116100fb578063a457c2d714610587578063a9059cbb146105b3578063aea0e78b146105df578063b148440f146105e757610202565b8063895a15d31461044257806389c19ddb1461044a578063934aa0231461057757806395d89b411461057f57610202565b806323b872dd116101a4578063395093511161017357806339509351146103bc57806357d775f8146103e85780635f74bbde146103f057806370a082311461041c57610202565b806323b872dd1461033a5780632e51c084146103705780632ee29fac14610396578063313ce5671461039e57610202565b806318160ddd116101e057806318160ddd146102de5780631c1b8772146102e65780631ec14c171461030e5780631f7b41b01461033257610202565b806306fdde0314610207578063095ea7b314610284578063101d9842146102c4575b600080fd5b61020f6106bb565b6040805160208082528351818301528351919283929083019185019080838360005b83811015610249578181015183820152602001610231565b50505050905090810190601f1680156102765780820380516001836020036101000a031916815260200191505b509250505060405180910390f35b6102b06004803603604081101561029a57600080fd5b50600160a060020a038135169060200135610751565b604080519115158252519081900360200190f35b6102cc61077b565b60408051918252519081900360200190f35b6102cc610781565b61030c600480360360208110156102fc57600080fd5b5035600160a060020a0316610787565b005b61031661089a565b60408051600160a060020a039092168252519081900360200190f35b6102cc6108a9565b6102b06004803603606081101561035057600080fd5b50600160a060020a038135811691602081013590911690604001356108af565b6102cc6004803603602081101561038657600080fd5b5035600160a060020a03166108d9565b6103166108eb565b6103a66108fa565b6040805160ff9092168252519081900360200190f35b6102b0600480360360408110156103d257600080fd5b50600160a060020a038135169060200135610903565b6102cc61094d565b61030c6004803603604081101561040657600080fd5b50600160a060020a038135169060200135610953565b6102cc6004803603602081101561043257600080fd5b5035600160a060020a0316610b13565b6102cc610b2e565b61020f6004803603604081101561046057600080fd5b81019060208101813564010000000081111561047b57600080fd5b82018360208201111561048d57600080fd5b803590602001918460018302840111640100000000831117156104af57600080fd5b91908080601f016020809104026020016040519081016040528093929190818152602001838380828437600092019190915250929594936020810193503591505064010000000081111561050257600080fd5b82018360208201111561051457600080fd5b8035906020019184600183028401116401000000008311171561053657600080fd5b91908080601f016020809104026020016040519081016040528093929190818152602001838380828437600092019190915250929550610b34945050505050565b610316610c69565b61020f610c78565b6102b06004803603604081101561059d57600080fd5b50600160a060020a038135169060200135610cd9565b6102b0600480360360408110156105c957600080fd5b50600160a060020a038135169060200135610d15565b6102cc610d33565b6102cc600480360360208110156105fd57600080fd5b5035600160a060020a0316610d39565b610316610d7d565b6102cc6004803603602081101561062b57600080fd5b5035600160a060020a0316610d8c565b6102cc6004803603604081101561065157600080fd5b50600160a060020a0381358116916020013516610d9e565b61030c6004803603602081101561067f57600080fd5b5035610dc9565b61030c6004803603602081101561069c57600080fd5b5035610f69565b61030c6111c8565b610316611466565b610316611475565b60038054604080516020601f60026000196101006001881615020190951694909404938401819004810282018101909252828152606093909290918301828280156107475780601f1061071c57610100808354040283529160200191610747565b820191906000526020600020905b81548152906001019060200180831161072a57829003601f168201915b5050505050905090565b600061075c33610787565b61076583610787565b61076f8383611489565b50600190505b92915050565b600a5481565b60025490565b600061079282610d39565b604080518281529051919250600160a060020a038416917f603f16706d8facbdadddadc2f84737909caebc5d1f3adf53d69014f2d908611c9181900360200190a2600554604080517f40c10f19000000000000000000000000000000000000000000000000000000008152600160a060020a038581166004830152602482018590529151610100909304909116916340c10f19916044808201926020929091908290030181600087803b15801561084857600080fd5b505af115801561085c573d6000803e3d6000fd5b505050506040513d602081101561087257600080fd5b505161087d57600080fd5b50600160a060020a03166000908152600b60205260409020439055565b600d54600160a060020a031681565b600f5481565b60006108ba84610787565b6108c383610787565b6108ce848484611496565b506001949350505050565b600b6020526000908152604090205481565b600e54600160a060020a031681565b60055460ff1690565b336000818152600160209081526040808320600160a060020a0387168452909152812054909161094491859061093f908663ffffffff6114e816565b61154c565b50600192915050565b60095481565b600160a060020a03821661096657600080fd5b601054600c54600091148015906109905750600a54600c5461098d9163ffffffff61163e16565b42115b156109eb5750600c54601055600e8054600d8054600160a060020a0380841673ffffffffffffffffffffffffffffffffffffffff19928316179092559091169091556000600f81905590831681526011602052604081205560015b6109f433610787565b600560019054906101000a9004600160a060020a0316600160a060020a03166342966c68836040518263ffffffff167c010000000000000000000000000000000000000000000000000000000002815260040180828152602001915050600060405180830381600087803b158015610a6b57600080fd5b505af1158015610a7f573d6000803e3d6000fd5b505050600160a060020a038416600090815260116020526040902054610aac91508363ffffffff6114e816565b600160a060020a0384166000908152601160205260409020819055600f541015610b0e57600e805473ffffffffffffffffffffffffffffffffffffffff1916600160a060020a038516908117909155600090815260116020526040902054600f555b505050565b600160a060020a031660009081526020819052604090205490565b60105481565b6060808390506060839050606081518351016040519080825280601f01601f191660200182016040528015610b70576020820181803883390190505b509050806000805b8551811015610be857858181518110610b8d57fe5b602001015160f860020a900460f860020a02838380600101945081518110610bb157fe5b60200101907effffffffffffffffffffffffffffffffffffffffffffffffffffffffffffff1916908160001a905350600101610b78565b5060005b8451811015610c5c57848181518110610c0157fe5b602001015160f860020a900460f860020a02838380600101945081518110610c2557fe5b60200101907effffffffffffffffffffffffffffffffffffffffffffffffffffffffffffff1916908160001a905350600101610bec565b5090979650505050505050565b600854600160a060020a031681565b60048054604080516020601f60026000196101006001881615020190951694909404938401819004810282018101909252828152606093909290918301828280156107475780601f1061071c57610100808354040283529160200191610747565b336000818152600160209081526040808320600160a060020a0387168452909152812054909161094491859061093f908663ffffffff61163e16565b6000610d2033610787565b610d2983610787565b61076f838361169e565b600c5481565b6000610775610d4783610b13565b600160a060020a0384166000908152600b6020526040902054610d7190439063ffffffff61163e16565b9063ffffffff6116ab16565b600654600160a060020a031681565b60116020526000908152604090205481565b600160a060020a03918216600090815260016020908152604080832093909416825291909152205490565b610dd233610b13565b811115610dde57600080fd5b610de733610787565b610df13382611707565b600754604080517f852a12e3000000000000000000000000000000000000000000000000000000008152600481018490529051600160a060020a039092169163852a12e3916024808201926020929091908290030181600087803b158015610e5857600080fd5b505af1158015610e6c573d6000803e3d6000fd5b505050506040513d6020811015610e8257600080fd5b505115610e8e57600080fd5b600654604080517fa9059cbb000000000000000000000000000000000000000000000000000000008152336004820152602481018490529051600160a060020a039092169163a9059cbb916044808201926020929091908290030181600087803b158015610efb57600080fd5b505af1158015610f0f573d6000803e3d6000fd5b505050506040513d6020811015610f2557600080fd5b5051610f3057600080fd5b60408051828152905133917f95ae649bfaaef9def56a52f4fb2d9e8fa5496bb7082930e442c74cc76b03dcb3919081900360200190a250565b600654604080517f23b872dd000000000000000000000000000000000000000000000000000000008152336004820152306024820152604481018490529051600160a060020a03909216916323b872dd916064808201926020929091908290030181600087803b158015610fdc57600080fd5b505af1158015610ff0573d6000803e3d6000fd5b505050506040513d602081101561100657600080fd5b505161101157600080fd5b600654600754604080517f095ea7b3000000000000000000000000000000000000000000000000000000008152600160a060020a039283166004820152602481018590529051919092169163095ea7b39160448083019260209291908290030181600087803b15801561108357600080fd5b505af1158015611097573d6000803e3d6000fd5b505050506040513d60208110156110ad57600080fd5b50516110b857600080fd5b600754604080517fa0712d68000000000000000000000000000000000000000000000000000000008152600481018490529051600160a060020a039092169163a0712d68916024808201926020929091908290030181600087803b15801561111f57600080fd5b505af1158015611133573d6000803e3d6000fd5b505050506040513d602081101561114957600080fd5b50511561115557600080fd5b336000908152600b602052604090205461117c57336000908152600b602052604090204390555b61118533610787565b61118f33826117e3565b60408051828152905133917f4700c1726b4198077cd40320a32c45265a1910521eb0ef713dd1d8412413d7fc919081900360200190a250565b600c544210156111d757600080fd5b6009546111eb90429063ffffffff6114e816565b600c5560006112996111fb610781565b600754604080517f3af9e6690000000000000000000000000000000000000000000000000000000081523060048201529051600160a060020a0390921691633af9e669916024808201926020929091908290030181600087803b15801561126157600080fd5b505af1158015611275573d6000803e3d6000fd5b505050506040513d602081101561128b57600080fd5b50519063ffffffff61163e16565b600754604080517f852a12e3000000000000000000000000000000000000000000000000000000008152600481018490529051929350600160a060020a039091169163852a12e3916024808201926020929091908290030181600087803b15801561130357600080fd5b505af1158015611317573d6000803e3d6000fd5b505050506040513d602081101561132d57600080fd5b50511561133957600080fd5b600654600854604080517fa9059cbb000000000000000000000000000000000000000000000000000000008152600160a060020a039283166004820152602481018590529051919092169163a9059cbb9160448083019260209291908290030181600087803b1580156113ab57600080fd5b505af11580156113bf573d6000803e3d6000fd5b505050506040513d60208110156113d557600080fd5b50516113e057600080fd5b600854604080518381529051600160a060020a03909216917f2a01595cddf097c90216094025db714da3f4e5bd8877b56ba86a24ecead8e5439181900360200190a2600d54600160a060020a03161561146357600d546008805473ffffffffffffffffffffffffffffffffffffffff1916600160a060020a039092169190911790555b50565b600754600160a060020a031681565b6005546101009004600160a060020a031681565b600061094433848461154c565b60006114a38484846118d6565b600160a060020a0384166000908152600160209081526040808320338085529252909120546114de91869161093f908663ffffffff61163e16565b5060019392505050565b600082820183811015611545576040805160e560020a62461bcd02815260206004820152601b60248201527f536166654d6174683a206164646974696f6e206f766572666c6f770000000000604482015290519081900360640190fd5b9392505050565b600160a060020a0383166115945760405160e560020a62461bcd028152600401808060200182810382526024815260200180611acb6024913960400191505060405180910390fd5b600160a060020a0382166115dc5760405160e560020a62461bcd028152600401808060200182810382526022815260200180611a426022913960400191505060405180910390fd5b600160a060020a03808416600081815260016020908152604080832094871680845294825291829020859055815185815291517f8c5be1e5ebec7d5bd14f71427d1e84f3dd0314c0f7b2291e5b200ac8c7c3b9259281900390910190a3505050565b600082821115611698576040805160e560020a62461bcd02815260206004820152601e60248201527f536166654d6174683a207375627472616374696f6e206f766572666c6f770000604482015290519081900360640190fd5b50900390565b60006109443384846118d6565b6000826116ba57506000610775565b828202828482816116c757fe5b04146115455760405160e560020a62461bcd028152600401808060200182810382526021815260200180611a646021913960400191505060405180910390fd5b600160a060020a03821661174f5760405160e560020a62461bcd028152600401808060200182810382526021815260200180611a856021913960400191505060405180910390fd5b600254611762908263ffffffff61163e16565b600255600160a060020a03821660009081526020819052604090205461178e908263ffffffff61163e16565b600160a060020a038316600081815260208181526040808320949094558351858152935191937fddf252ad1be2c89b69c2b068fc378daa952ba7f163c4a11628f55a4df523b3ef929081900390910190a35050565b600160a060020a038216611841576040805160e560020a62461bcd02815260206004820152601f60248201527f45524332303a206d696e7420746f20746865207a65726f206164647265737300604482015290519081900360640190fd5b600254611854908263ffffffff6114e816565b600255600160a060020a038216600090815260208190526040902054611880908263ffffffff6114e816565b600160a060020a0383166000818152602081815260408083209490945583518581529351929391927fddf252ad1be2c89b69c2b068fc378daa952ba7f163c4a11628f55a4df523b3ef9281900390910190a35050565b600160a060020a03831661191e5760405160e560020a62461bcd028152600401808060200182810382526025815260200180611aa66025913960400191505060405180910390fd5b600160a060020a0382166119665760405160e560020a62461bcd028152600401808060200182810382526023815260200180611a1f6023913960400191505060405180910390fd5b600160a060020a03831660009081526020819052604090205461198f908263ffffffff61163e16565b600160a060020a0380851660009081526020819052604080822093909355908416815220546119c4908263ffffffff6114e816565b600160a060020a038084166000818152602081815260409182902094909455805185815290519193928716927fddf252ad1be2c89b69c2b068fc378daa952ba7f163c4a11628f55a4df523b3ef92918290030190a350505056fe45524332303a207472616e7366657220746f20746865207a65726f206164647265737345524332303a20617070726f766520746f20746865207a65726f2061646472657373536166654d6174683a206d756c7469706c69636174696f6e206f766572666c6f7745524332303a206275726e2066726f6d20746865207a65726f206164647265737345524332303a207472616e736665722066726f6d20746865207a65726f206164647265737345524332303a20617070726f76652066726f6d20746865207a65726f2061646472657373a165627a7a72305820d10ac25f6683859b73ff356c0dc38a5a930944c4397eb4f000ffa28feba25ca4002960806040523480156200001157600080fd5b506040516200158438038062001584833981018060405260608110156200003757600080fd5b8101908080516401000000008111156200005057600080fd5b820160208101848111156200006457600080fd5b81516401000000008111828201871017156200007f57600080fd5b505092919060200180516401000000008111156200009c57600080fd5b82016020810184811115620000b057600080fd5b8151640100000000811182820187101715620000cb57600080fd5b50506020909101519092509050828282620000ef336401000000006200014c810204565b825162000104906004906020860190620002c8565b5081516200011a906005906020850190620002c8565b506006805460ff191660ff929092169190911761010060a860020a0319166101003302179055506200036d9350505050565b6200016760038264010000000062000fa96200019e82021704565b604051600160a060020a038216907f6ae172837ea30b801fbfcdd4108aa1d5bf8ff775444fd70256b44e6bf3dfc3f690600090a250565b620001b3828264010000000062000245810204565b156200022057604080517f08c379a000000000000000000000000000000000000000000000000000000000815260206004820152601f60248201527f526f6c65733a206163636f756e7420616c72656164792068617320726f6c6500604482015290519081900360640190fd5b600160a060020a0316600090815260209190915260409020805460ff19166001179055565b6000600160a060020a038216620002a8576040517f08c379a0000000000000000000000000000000000000000000000000000000008152600401808060200182810382526022815260200180620015626022913960400191505060405180910390fd5b50600160a060020a03166000908152602091909152604090205460ff1690565b828054600181600116156101000203166002900490600052602060002090601f016020900481019282601f106200030b57805160ff19168380011785556200033b565b828001600101855582156200033b579182015b828111156200033b5782518255916020019190600101906200031e565b50620003499291506200034d565b5090565b6200036a91905b8082111562000349576000815560010162000354565b90565b6111e5806200037d6000396000f3fe608060405234801561001057600080fd5b5060043610610133576000357c01000000000000000000000000000000000000000000000000000000009004806370a08231116100bf578063a457c2d71161008e578063a457c2d71461033e578063a9059cbb1461036a578063aa271e1a14610396578063dd62ed3e146103bc578063e89d4e5b146103ea57610133565b806370a08231146102e257806395d89b4114610308578063983b2d5614610310578063986502751461033657610133565b8063313ce56711610106578063313ce56714610245578063395093511461026357806340c10f191461028f57806342966c68146102bb57806357e871e7146102da57610133565b806306fdde0314610138578063095ea7b3146101b557806318160ddd146101f557806323b872dd1461020f575b600080fd5b61014061040e565b6040805160208082528351818301528351919283929083019185019080838360005b8381101561017a578181015183820152602001610162565b50505050905090810190601f1680156101a75780820380516001836020036101000a031916815260200191505b509250505060405180910390f35b6101e1600480360360408110156101cb57600080fd5b50600160a060020a0381351690602001356104a4565b604080519115158252519081900360200190f35b6101fd610539565b60408051918252519081900360200190f35b6101e16004803603606081101561022557600080fd5b50600160a060020a0381358116916020810135909116906040013561053f565b61024d6105db565b6040805160ff9092168252519081900360200190f35b6101e16004803603604081101561027957600080fd5b50600160a060020a0381351690602001356105e4565b6101e1600480360360408110156102a557600080fd5b50600160a060020a03813516906020013561062e565b6102d8600480360360208110156102d157600080fd5b5035610681565b005b6101fd6106d5565b6101fd600480360360208110156102f857600080fd5b5035600160a060020a03166106d9565b610140610790565b6102d86004803603602081101561032657600080fd5b5035600160a060020a03166107f1565b6102d8610841565b6101e16004803603604081101561035457600080fd5b50600160a060020a03813516906020013561084c565b6101e16004803603604081101561038057600080fd5b50600160a060020a038135169060200135610888565b6101e1600480360360208110156103ac57600080fd5b5035600160a060020a0316610913565b6101fd600480360360408110156103d257600080fd5b50600160a060020a0381358116916020013516610926565b6103f2610951565b60408051600160a060020a039092168252519081900360200190f35b60048054604080516020601f600260001961010060018816150201909516949094049384018190048102820181019092528281526060939092909183018282801561049a5780601f1061046f5761010080835404028352916020019161049a565b820191906000526020600020905b81548152906001019060200180831161047d57829003601f168201915b5050505050905090565b600654604080517f1c1b877200000000000000000000000000000000000000000000000000000000815233600482015290516000926101009004600160a060020a031691631c1b8772916024808301928692919082900301818387803b15801561050d57600080fd5b505af1158015610521573d6000803e3d6000fd5b5050505061052f8383610965565b5060019392505050565b60025490565b600654604080517f1c1b8772000000000000000000000000000000000000000000000000000000008152600160a060020a0386811660048301529151600093610100900490921691631c1b877291602480820192869290919082900301818387803b1580156105ad57600080fd5b505af11580156105c1573d6000803e3d6000fd5b505050506105d0848484610972565b506001949350505050565b60065460ff1690565b336000818152600160209081526040808320600160a060020a03871684529091528120549091610625918590610620908663ffffffff6109ba16565b610a1e565b50600192915050565b600061063933610913565b6106775760405160e560020a62461bcd0281526004018080602001828103825260308152602001806110dd6030913960400191505060405180910390fd5b6106258383610b10565b61068a33610913565b6106c85760405160e560020a62461bcd0281526004018080602001828103825260308152602001806110dd6030913960400191505060405180910390fd5b6106d23382610c03565b50565b4390565b600654604080517fb148440f000000000000000000000000000000000000000000000000000000008152600160a060020a038481166004830152915160009361078a93610100909104169163b148440f916024808301926020929190829003018186803b15801561074957600080fd5b505afa15801561075d573d6000803e3d6000fd5b505050506040513d602081101561077357600080fd5b505161077e84610cdf565b9063ffffffff6109ba16565b92915050565b60058054604080516020601f600260001961010060018816150201909516949094049384018190048102820181019092528281526060939092909183018282801561049a5780601f1061046f5761010080835404028352916020019161049a565b6107fa33610913565b6108385760405160e560020a62461bcd0281526004018080602001828103825260308152602001806110dd6030913960400191505060405180910390fd5b6106d281610cfa565b61084a33610d42565b565b336000818152600160209081526040808320600160a060020a03871684529091528120549091610625918590610620908663ffffffff610d8a16565b600654604080517f1c1b877200000000000000000000000000000000000000000000000000000000815233600482015290516000926101009004600160a060020a031691631c1b8772916024808301928692919082900301818387803b1580156108f157600080fd5b505af1158015610905573d6000803e3d6000fd5b5050505061052f8383610dea565b600061078a60038363ffffffff610df716565b600160a060020a03918216600090815260016020908152604080832093909416825291909152205490565b6006546101009004600160a060020a031681565b6000610625338484610a1e565b600061097f848484610e61565b600160a060020a03841660009081526001602090815260408083203380855292529091205461052f918691610620908663ffffffff610d8a16565b600082820183811015610a17576040805160e560020a62461bcd02815260206004820152601b60248201527f536166654d6174683a206164646974696f6e206f766572666c6f770000000000604482015290519081900360640190fd5b9392505050565b600160a060020a038316610a665760405160e560020a62461bcd0281526004018080602001828103825260248152602001806111966024913960400191505060405180910390fd5b600160a060020a038216610aae5760405160e560020a62461bcd0281526004018080602001828103825260228152602001806110bb6022913960400191505060405180910390fd5b600160a060020a03808416600081815260016020908152604080832094871680845294825291829020859055815185815291517f8c5be1e5ebec7d5bd14f71427d1e84f3dd0314c0f7b2291e5b200ac8c7c3b9259281900390910190a3505050565b600160a060020a038216610b6e576040805160e560020a62461bcd02815260206004820152601f60248201527f45524332303a206d696e7420746f20746865207a65726f206164647265737300604482015290519081900360640190fd5b600254610b81908263ffffffff6109ba16565b600255600160a060020a038216600090815260208190526040902054610bad908263ffffffff6109ba16565b600160a060020a0383166000818152602081815260408083209490945583518581529351929391927fddf252ad1be2c89b69c2b068fc378daa952ba7f163c4a11628f55a4df523b3ef9281900390910190a35050565b600160a060020a038216610c4b5760405160e560020a62461bcd0281526004018080602001828103825260218152602001806111506021913960400191505060405180910390fd5b600254610c5e908263ffffffff610d8a16565b600255600160a060020a038216600090815260208190526040902054610c8a908263ffffffff610d8a16565b600160a060020a038316600081815260208181526040808320949094558351858152935191937fddf252ad1be2c89b69c2b068fc378daa952ba7f163c4a11628f55a4df523b3ef929081900390910190a35050565b600160a060020a031660009081526020819052604090205490565b610d0b60038263ffffffff610fa916565b604051600160a060020a038216907f6ae172837ea30b801fbfcdd4108aa1d5bf8ff775444fd70256b44e6bf3dfc3f690600090a250565b610d5360038263ffffffff61102d16565b604051600160a060020a038216907fe94479a9f7e1952cc78f2d6baab678adc1b772d936c6583def489e524cb6669290600090a250565b600082821115610de4576040805160e560020a62461bcd02815260206004820152601e60248201527f536166654d6174683a207375627472616374696f6e206f766572666c6f770000604482015290519081900360640190fd5b50900390565b6000610625338484610e61565b6000600160a060020a038216610e415760405160e560020a62461bcd02815260040180806020018281038252602281526020018061112e6022913960400191505060405180910390fd5b50600160a060020a03166000908152602091909152604090205460ff1690565b600160a060020a038316610ea95760405160e560020a62461bcd0281526004018080602001828103825260258152602001806111716025913960400191505060405180910390fd5b600160a060020a038216610ef15760405160e560020a62461bcd0281526004018080602001828103825260238152602001806110986023913960400191505060405180910390fd5b600160a060020a038316600090815260208190526040902054610f1a908263ffffffff610d8a16565b600160a060020a038085166000908152602081905260408082209390935590841681522054610f4f908263ffffffff6109ba16565b600160a060020a038084166000818152602081815260409182902094909455805185815290519193928716927fddf252ad1be2c89b69c2b068fc378daa952ba7f163c4a11628f55a4df523b3ef92918290030190a3505050565b610fb38282610df7565b15611008576040805160e560020a62461bcd02815260206004820152601f60248201527f526f6c65733a206163636f756e7420616c72656164792068617320726f6c6500604482015290519081900360640190fd5b600160a060020a0316600090815260209190915260409020805460ff19166001179055565b6110378282610df7565b6110755760405160e560020a62461bcd02815260040180806020018281038252602181526020018061110d6021913960400191505060405180910390fd5b600160a060020a0316600090815260209190915260409020805460ff1916905556fe45524332303a207472616e7366657220746f20746865207a65726f206164647265737345524332303a20617070726f766520746f20746865207a65726f20616464726573734d696e746572526f6c653a2063616c6c657220646f6573206e6f74206861766520746865204d696e74657220726f6c65526f6c65733a206163636f756e7420646f6573206e6f74206861766520726f6c65526f6c65733a206163636f756e7420697320746865207a65726f206164647265737345524332303a206275726e2066726f6d20746865207a65726f206164647265737345524332303a207472616e736665722066726f6d20746865207a65726f206164647265737345524332303a20617070726f76652066726f6d20746865207a65726f2061646472657373a165627a7a72305820c613c8264816f386090a8fc9331e9856494533482c4201bbee34f62b488844420029526f6c65733a206163636f756e7420697320746865207a65726f2061646472657373",
  "source": "pragma solidity ^0.5.0;\n\n// Everyone who deposits funds is issued time tokens.\n// 1 CHAR token is equivalent to 1 DAI for 1 block and represents your voting power\n// There are three phases - voting, deposit and donate\n// In the voting phase CHAR holders vote on the address they would like to receive funds from the next deposit phase.\n// In the deposit phases people can depositnpm\n// Each epoch (e.g. 1000 blocks)\n\nimport 'openzeppelin-solidity/contracts/token/ERC20/ERC20.sol';\nimport 'openzeppelin-solidity/contracts/token/ERC20/ERC20Detailed.sol';\nimport 'openzeppelin-solidity/contracts/math/SafeMath.sol';\nimport './GovernanceToken.sol';\nimport './ICompound.sol';\nimport './IDeFiDonate.sol';\n\n// Rinkeby deployment parameters\n//\"GDAI\", \"GDAI\", 18, \"0x5592ec0cfb4dbc12d3ab100b257153436a1f0fea\", \"0x6D7F0754FFeb405d23C51CE938289d4835bE3b14\", \"0x85523D0f76B3A6C3c05b2CfBb0558B45541f100B\", 100\n\n\n// Represents wrapped DAI that has been deposited to Compound\n// Can be freely transferred as an ERC20\n// Wrapping / Unwrapping can happen at any time\n\ncontract DeFiDonate is ERC20, ERC20Detailed {\n    using SafeMath for uint256;\n\n    GovernanceToken public governanceToken; // token which accrues to holders of wrapped DAI\n    ERC20 public depositToken; // DAI token address\n    ICompound public compound; // Address of compound contract\n\n    address public charity; // Address which will receive funds at the end of the current epoch\n    uint256 public epochLength; // Length of each epoch (e.g. 1 month)\n    uint256 public coolOffLength; // Period of time that people have to withdraw their funds if they don't like the winning charity\n\n    mapping (address => uint256) public updatedBlock; // Last time that governanceToken balance was updated for an address\n\n    uint256 public nextEpoch; // Timestamp that next epoch starts on\n\n    address public chosenCharity; // The charity that will be paid to in the following epoch\n    address public largestCharity; // Charity currently winning the voting process\n    uint256 public largestVote; // Number of votes the above charity has\n    uint256 public rolledEpoch; // Whether or not the vote has been reset for a particular epoch\n    mapping (address => uint256) public votes; // Votes for each proposed charity address\n\n    event Accrued(address indexed _account, uint256 _accrued);\n    event Wrapped(address indexed _account, uint256 _amount);\n    event Unwrapped(address indexed _account, uint256 _amount);\n    event Donated(address indexed _charity, uint256 _amount);\n\n    // Capture wrapped charity DAI as a token so it can be transferred / sent\n    // deposit / redeem becomes wrap / unwrap\n    // CharityToken is minted separately\n\n    constructor(string memory _name, string memory _symbol, uint8 _decimals, address _depositToken, address _compound, address _charity, uint256 _epochLength, uint256 _coolOffLength) public\n        ERC20Detailed(_name, _symbol, _decimals)\n    {\n        require(_charity != address(0));\n        require(_coolOffLength < _epochLength);\n        governanceToken = new GovernanceToken(concat(_name, \" - Voting\"), concat(_symbol, \"_VOTE\"), 18);\n        depositToken = ERC20(_depositToken);\n        compound = ICompound(_compound);\n        charity = _charity;\n        epochLength = _epochLength;\n        coolOffLength = _coolOffLength;\n        nextEpoch = block.timestamp.add(epochLength);\n    }\n\n    function concat(string memory _a, string memory _b) public pure returns (string memory) {\n        bytes memory bytes_a = bytes(_a);\n        bytes memory bytes_b = bytes(_b);\n        string memory length_ab = new string(bytes_a.length + bytes_b.length);\n        bytes memory bytes_c = bytes(length_ab);\n        uint k = 0;\n        for (uint i = 0; i < bytes_a.length; i++) bytes_c[k++] = bytes_a[i];\n        for (uint i = 0; i < bytes_b.length; i++) bytes_c[k++] = bytes_b[i];\n        return string(bytes_c);\n    }\n\n    // Wrap DAI and receive back wrapped tokens on a 1-1 basis\n    function wrap(uint256 _amount) external {\n        require(depositToken.transferFrom(msg.sender, address(this), _amount));\n        require(depositToken.approve(address(compound), _amount));\n        require(compound.mint(_amount) == 0);\n        if (updatedBlock[msg.sender] == 0) {\n            updatedBlock[msg.sender] = block.number;\n        }\n        update(msg.sender);\n        _mint(msg.sender, _amount);\n        emit Wrapped(msg.sender, _amount);\n    }\n\n    // Unwrap your tokens back to DAI - depends on Compound liquidity\n    function unwrap(uint256 _amount) external {\n        require(_amount <= balanceOf(msg.sender));\n        update(msg.sender);\n        _burn(msg.sender, _amount);\n        require(compound.redeemUnderlying(_amount) == 0);\n        require(depositToken.transfer(msg.sender, _amount));\n        emit Unwrapped(msg.sender, _amount);\n    }\n\n    function transfer(address _recipient, uint256 _amount) public returns (bool) {\n        // Ensure that GovernanceToken balances are correctly reflected before executing transfer\n        update(msg.sender);\n        update(_recipient);\n        super.transfer(_recipient, _amount);\n        return true;\n    }\n\n    function approve(address _spender, uint256 _value) public returns (bool) {\n        // Ensure that GovernanceToken balances are correctly reflected before executing transfer\n        update(msg.sender);\n        update(_spender);\n        super.approve(_spender, _value);\n        return true;\n    }\n\n    function transferFrom(address _sender, address _recipient, uint256 _amount) public returns (bool) {\n        // Ensure that GovernanceToken balances are correctly reflected before executing transfer\n        update(_sender);\n        update(_recipient);\n        super.transferFrom(_sender, _recipient, _amount);\n        return true;\n    }\n\n    function update(address _account) public {\n        // Update the GovernanceToken balance for an address - can be called at anytime by anyone\n        uint256 interest = accrued(_account);\n        emit Accrued(_account, interest);\n        require(governanceToken.mint(_account, interest));\n        updatedBlock[_account] = block.number;\n    }\n\n    // Return the amount of GovernanceTokens owed to an account\n    function accrued(address _account) public view returns (uint256) {\n        return block.number.sub(updatedBlock[_account]).mul(balanceOf(_account));\n    }\n\n    // Burn your GovernanceTokens in return for voting for a charity\n    function vote(address _charity, uint256 _amount) external {\n        require(_charity != address(0));\n        bool resetVotes = false;\n        if ((nextEpoch != rolledEpoch) && (block.timestamp > nextEpoch.sub(coolOffLength))) {\n            rolledEpoch = nextEpoch;\n            resetVotes = true;\n            chosenCharity = largestCharity;\n            largestCharity = address(0);\n            largestVote = 0;\n            votes[_charity] = 0;\n        }\n        update(msg.sender);\n        governanceToken.burn(_amount);\n        votes[_charity] = votes[_charity].add(_amount);\n        if (votes[_charity] > largestVote) {\n            largestCharity = _charity;\n            largestVote = votes[_charity];\n        }\n    }\n\n    // Can be called by anyone to pay to the current charity and roll over voting to the next epoch\n    function epochDonate() external {\n        require(block.timestamp >= nextEpoch);\n        nextEpoch = block.timestamp.add(epochLength);\n        uint256 interest = compound.balanceOfUnderlying(address(this)).sub(totalSupply());\n        require(compound.redeemUnderlying(interest) == 0);\n        require(depositToken.transfer(charity, interest));\n        emit Donated(charity, interest);\n        if (chosenCharity != address(0)) {\n            charity = chosenCharity;\n        }\n    }\n\n}\n",
  "sourcePath": "/Users/adamdossa/Development/Ethereum/DeFiDonate/contracts/DeFiDonate.sol",
  "compiler": {
    "name": "solc",
    "version": "0.5.8+commit.23d335f2.Emscripten.clang"
  },
  "schemaVersion": "3.0.2",
  "updatedAt": "2019-06-29T02:17:39.919Z",
  "devdoc": {
    "methods": {
      "allowance(address,address)": {
        "details": "See `IERC20.allowance`."
      },
      "balanceOf(address)": {
        "details": "See `IERC20.balanceOf`."
      },
      "decimals()": {
        "details": "Returns the number of decimals used to get its user representation. For example, if `decimals` equals `2`, a balance of `505` tokens should be displayed to a user as `5,05` (`505 / 10 ** 2`).     * Tokens usually opt for a value of 18, imitating the relationship between Ether and Wei.     * > Note that this information is only used for _display_ purposes: it in no way affects any of the arithmetic of the contract, including `IERC20.balanceOf` and `IERC20.transfer`."
      },
      "decreaseAllowance(address,uint256)": {
        "details": "Atomically decreases the allowance granted to `spender` by the caller.     * This is an alternative to `approve` that can be used as a mitigation for problems described in `IERC20.approve`.     * Emits an `Approval` event indicating the updated allowance.     * Requirements:     * - `spender` cannot be the zero address. - `spender` must have allowance for the caller of at least `subtractedValue`."
      },
      "increaseAllowance(address,uint256)": {
        "details": "Atomically increases the allowance granted to `spender` by the caller.     * This is an alternative to `approve` that can be used as a mitigation for problems described in `IERC20.approve`.     * Emits an `Approval` event indicating the updated allowance.     * Requirements:     * - `spender` cannot be the zero address."
      },
      "name()": {
        "details": "Returns the name of the token."
      },
      "symbol()": {
        "details": "Returns the symbol of the token, usually a shorter version of the name."
      },
      "totalSupply()": {
        "details": "See `IERC20.totalSupply`."
      }
    }
  },
  "userdoc": {
    "methods": {}
  }
}