{
  "contractName": "GovernanceToken",
  "abi": [
    {
      "constant": true,
      "inputs": [],
      "name": "name",
      "outputs": [
        {
          "name": "",
          "type": "string"
        }
      ],
      "payable": false,
      "stateMutability": "view",
      "type": "function",
      "signature": "0x06fdde03"
    },
    {
      "constant": true,
      "inputs": [],
      "name": "totalSupply",
      "outputs": [
        {
          "name": "",
          "type": "uint256"
        }
      ],
      "payable": false,
      "stateMutability": "view",
      "type": "function",
      "signature": "0x18160ddd"
    },
    {
      "constant": true,
      "inputs": [],
      "name": "decimals",
      "outputs": [
        {
          "name": "",
          "type": "uint8"
        }
      ],
      "payable": false,
      "stateMutability": "view",
      "type": "function",
      "signature": "0x313ce567"
    },
    {
      "constant": false,
      "inputs": [
        {
          "name": "spender",
          "type": "address"
        },
        {
          "name": "addedValue",
          "type": "uint256"
        }
      ],
      "name": "increaseAllowance",
      "outputs": [
        {
          "name": "",
          "type": "bool"
        }
      ],
      "payable": false,
      "stateMutability": "nonpayable",
      "type": "function",
      "signature": "0x39509351"
    },
    {
      "constant": false,
      "inputs": [
        {
          "name": "account",
          "type": "address"
        },
        {
          "name": "amount",
          "type": "uint256"
        }
      ],
      "name": "mint",
      "outputs": [
        {
          "name": "",
          "type": "bool"
        }
      ],
      "payable": false,
      "stateMutability": "nonpayable",
      "type": "function",
      "signature": "0x40c10f19"
    },
    {
      "constant": true,
      "inputs": [],
      "name": "symbol",
      "outputs": [
        {
          "name": "",
          "type": "string"
        }
      ],
      "payable": false,
      "stateMutability": "view",
      "type": "function",
      "signature": "0x95d89b41"
    },
    {
      "constant": false,
      "inputs": [
        {
          "name": "account",
          "type": "address"
        }
      ],
      "name": "addMinter",
      "outputs": [],
      "payable": false,
      "stateMutability": "nonpayable",
      "type": "function",
      "signature": "0x983b2d56"
    },
    {
      "constant": false,
      "inputs": [],
      "name": "renounceMinter",
      "outputs": [],
      "payable": false,
      "stateMutability": "nonpayable",
      "type": "function",
      "signature": "0x98650275"
    },
    {
      "constant": false,
      "inputs": [
        {
          "name": "spender",
          "type": "address"
        },
        {
          "name": "subtractedValue",
          "type": "uint256"
        }
      ],
      "name": "decreaseAllowance",
      "outputs": [
        {
          "name": "",
          "type": "bool"
        }
      ],
      "payable": false,
      "stateMutability": "nonpayable",
      "type": "function",
      "signature": "0xa457c2d7"
    },
    {
      "constant": true,
      "inputs": [
        {
          "name": "account",
          "type": "address"
        }
      ],
      "name": "isMinter",
      "outputs": [
        {
          "name": "",
          "type": "bool"
        }
      ],
      "payable": false,
      "stateMutability": "view",
      "type": "function",
      "signature": "0xaa271e1a"
    },
    {
      "constant": true,
      "inputs": [
        {
          "name": "owner",
          "type": "address"
        },
        {
          "name": "spender",
          "type": "address"
        }
      ],
      "name": "allowance",
      "outputs": [
        {
          "name": "",
          "type": "uint256"
        }
      ],
      "payable": false,
      "stateMutability": "view",
      "type": "function",
      "signature": "0xdd62ed3e"
    },
    {
      "constant": true,
      "inputs": [],
      "name": "deFiDonate",
      "outputs": [
        {
          "name": "",
          "type": "address"
        }
      ],
      "payable": false,
      "stateMutability": "view",
      "type": "function",
      "signature": "0xe89d4e5b"
    },
    {
      "inputs": [
        {
          "name": "_name",
          "type": "string"
        },
        {
          "name": "_symbol",
          "type": "string"
        },
        {
          "name": "_decimals",
          "type": "uint8"
        }
      ],
      "payable": false,
      "stateMutability": "nonpayable",
      "type": "constructor"
    },
    {
      "anonymous": false,
      "inputs": [
        {
          "indexed": true,
          "name": "account",
          "type": "address"
        }
      ],
      "name": "MinterAdded",
      "type": "event",
      "signature": "0x6ae172837ea30b801fbfcdd4108aa1d5bf8ff775444fd70256b44e6bf3dfc3f6"
    },
    {
      "anonymous": false,
      "inputs": [
        {
          "indexed": true,
          "name": "account",
          "type": "address"
        }
      ],
      "name": "MinterRemoved",
      "type": "event",
      "signature": "0xe94479a9f7e1952cc78f2d6baab678adc1b772d936c6583def489e524cb66692"
    },
    {
      "anonymous": false,
      "inputs": [
        {
          "indexed": true,
          "name": "from",
          "type": "address"
        },
        {
          "indexed": true,
          "name": "to",
          "type": "address"
        },
        {
          "indexed": false,
          "name": "value",
          "type": "uint256"
        }
      ],
      "name": "Transfer",
      "type": "event",
      "signature": "0xddf252ad1be2c89b69c2b068fc378daa952ba7f163c4a11628f55a4df523b3ef"
    },
    {
      "anonymous": false,
      "inputs": [
        {
          "indexed": true,
          "name": "owner",
          "type": "address"
        },
        {
          "indexed": true,
          "name": "spender",
          "type": "address"
        },
        {
          "indexed": false,
          "name": "value",
          "type": "uint256"
        }
      ],
      "name": "Approval",
      "type": "event",
      "signature": "0x8c5be1e5ebec7d5bd14f71427d1e84f3dd0314c0f7b2291e5b200ac8c7c3b925"
    },
    {
      "constant": false,
      "inputs": [
        {
          "name": "_account",
          "type": "address"
        },
        {
          "name": "_amount",
          "type": "uint256"
        }
      ],
      "name": "burn",
      "outputs": [],
      "payable": false,
      "stateMutability": "nonpayable",
      "type": "function",
      "signature": "0x9dc29fac"
    },
    {
      "constant": true,
      "inputs": [
        {
          "name": "_account",
          "type": "address"
        }
      ],
      "name": "balanceOf",
      "outputs": [
        {
          "name": "",
          "type": "uint256"
        }
      ],
      "payable": false,
      "stateMutability": "view",
      "type": "function",
      "signature": "0x70a08231"
    },
    {
      "constant": true,
      "inputs": [],
      "name": "blockNumber",
      "outputs": [
        {
          "name": "",
          "type": "uint256"
        }
      ],
      "payable": false,
      "stateMutability": "view",
      "type": "function",
      "signature": "0x57e871e7"
    },
    {
      "constant": true,
      "inputs": [],
      "name": "blockTime",
      "outputs": [
        {
          "name": "",
          "type": "uint256"
        }
      ],
      "payable": false,
      "stateMutability": "view",
      "type": "function",
      "signature": "0x48b15166"
    },
    {
      "constant": false,
      "inputs": [
        {
          "name": "_recipient",
          "type": "address"
        },
        {
          "name": "_amount",
          "type": "uint256"
        }
      ],
      "name": "transfer",
      "outputs": [
        {
          "name": "",
          "type": "bool"
        }
      ],
      "payable": false,
      "stateMutability": "nonpayable",
      "type": "function",
      "signature": "0xa9059cbb"
    },
    {
      "constant": false,
      "inputs": [
        {
          "name": "_spender",
          "type": "address"
        },
        {
          "name": "_value",
          "type": "uint256"
        }
      ],
      "name": "approve",
      "outputs": [
        {
          "name": "",
          "type": "bool"
        }
      ],
      "payable": false,
      "stateMutability": "nonpayable",
      "type": "function",
      "signature": "0x095ea7b3"
    },
    {
      "constant": false,
      "inputs": [
        {
          "name": "_sender",
          "type": "address"
        },
        {
          "name": "_recipient",
          "type": "address"
        },
        {
          "name": "_amount",
          "type": "uint256"
        }
      ],
      "name": "transferFrom",
      "outputs": [
        {
          "name": "",
          "type": "bool"
        }
      ],
      "payable": false,
      "stateMutability": "nonpayable",
      "type": "function",
      "signature": "0x23b872dd"
    }
  ],
  "bytecode": "0x60806040523480156200001157600080fd5b50604051620015ae380380620015ae833981018060405260608110156200003757600080fd5b8101908080516401000000008111156200005057600080fd5b820160208101848111156200006457600080fd5b81516401000000008111828201871017156200007f57600080fd5b505092919060200180516401000000008111156200009c57600080fd5b82016020810184811115620000b057600080fd5b8151640100000000811182820187101715620000cb57600080fd5b50506020909101519092509050828282620000ef336401000000006200014c810204565b825162000104906004906020860190620002c8565b5081516200011a906005906020850190620002c8565b506006805460ff191660ff929092169190911761010060a860020a0319166101003302179055506200036d9350505050565b6200016760038264010000000062000fd36200019e82021704565b604051600160a060020a038216907f6ae172837ea30b801fbfcdd4108aa1d5bf8ff775444fd70256b44e6bf3dfc3f690600090a250565b620001b3828264010000000062000245810204565b156200022057604080517f08c379a000000000000000000000000000000000000000000000000000000000815260206004820152601f60248201527f526f6c65733a206163636f756e7420616c72656164792068617320726f6c6500604482015290519081900360640190fd5b600160a060020a0316600090815260209190915260409020805460ff19166001179055565b6000600160a060020a038216620002a8576040517f08c379a00000000000000000000000000000000000000000000000000000000081526004018080602001828103825260228152602001806200158c6022913960400191505060405180910390fd5b50600160a060020a03166000908152602091909152604090205460ff1690565b828054600181600116156101000203166002900490600052602060002090601f016020900481019282601f106200030b57805160ff19168380011785556200033b565b828001600101855582156200033b579182015b828111156200033b5782518255916020019190600101906200031e565b50620003499291506200034d565b5090565b6200036a91905b8082111562000349576000815560010162000354565b90565b61120f806200037d6000396000f3fe608060405234801561001057600080fd5b506004361061013e576000357c01000000000000000000000000000000000000000000000000000000009004806370a08231116100ca578063a457c2d71161008e578063a457c2d714610360578063a9059cbb1461038c578063aa271e1a146103b8578063dd62ed3e146103de578063e89d4e5b1461040c5761013e565b806370a08231146102d657806395d89b41146102fc578063983b2d5614610304578063986502751461032c5780639dc29fac146103345761013e565b8063313ce56711610111578063313ce56714610250578063395093511461026e57806340c10f191461029a57806348b15166146102c657806357e871e7146102ce5761013e565b806306fdde0314610143578063095ea7b3146101c057806318160ddd1461020057806323b872dd1461021a575b600080fd5b61014b610430565b6040805160208082528351818301528351919283929083019185019080838360005b8381101561018557818101518382015260200161016d565b50505050905090810190601f1680156101b25780820380516001836020036101000a031916815260200191505b509250505060405180910390f35b6101ec600480360360408110156101d657600080fd5b50600160a060020a0381351690602001356104c6565b604080519115158252519081900360200190f35b61020861055b565b60408051918252519081900360200190f35b6101ec6004803603606081101561023057600080fd5b50600160a060020a03813581169160208101359091169060400135610561565b6102586105fd565b6040805160ff9092168252519081900360200190f35b6101ec6004803603604081101561028457600080fd5b50600160a060020a038135169060200135610606565b6101ec600480360360408110156102b057600080fd5b50600160a060020a038135169060200135610650565b6102086106a3565b6102086106a7565b610208600480360360208110156102ec57600080fd5b5035600160a060020a03166106ab565b61014b610762565b61032a6004803603602081101561031a57600080fd5b5035600160a060020a03166107c3565b005b61032a610816565b61032a6004803603604081101561034a57600080fd5b50600160a060020a038135169060200135610821565b6101ec6004803603604081101561037657600080fd5b50600160a060020a038135169060200135610876565b6101ec600480360360408110156103a257600080fd5b50600160a060020a0381351690602001356108b2565b6101ec600480360360208110156103ce57600080fd5b5035600160a060020a031661093d565b610208600480360360408110156103f457600080fd5b50600160a060020a0381358116916020013516610950565b61041461097b565b60408051600160a060020a039092168252519081900360200190f35b60048054604080516020601f60026000196101006001881615020190951694909404938401819004810282018101909252828152606093909290918301828280156104bc5780601f10610491576101008083540402835291602001916104bc565b820191906000526020600020905b81548152906001019060200180831161049f57829003601f168201915b5050505050905090565b600654604080517f1c1b877200000000000000000000000000000000000000000000000000000000815233600482015290516000926101009004600160a060020a031691631c1b8772916024808301928692919082900301818387803b15801561052f57600080fd5b505af1158015610543573d6000803e3d6000fd5b50505050610551838361098f565b5060019392505050565b60025490565b600654604080517f1c1b8772000000000000000000000000000000000000000000000000000000008152600160a060020a0386811660048301529151600093610100900490921691631c1b877291602480820192869290919082900301818387803b1580156105cf57600080fd5b505af11580156105e3573d6000803e3d6000fd5b505050506105f284848461099c565b506001949350505050565b60065460ff1690565b336000818152600160209081526040808320600160a060020a03871684529091528120549091610647918590610642908663ffffffff6109e416565b610a48565b50600192915050565b600061065b3361093d565b6106995760405160e560020a62461bcd0281526004018080602001828103825260308152602001806111076030913960400191505060405180910390fd5b6106478383610b3a565b4290565b4390565b600654604080517fb148440f000000000000000000000000000000000000000000000000000000008152600160a060020a038481166004830152915160009361075c93610100909104169163b148440f916024808301926020929190829003018186803b15801561071b57600080fd5b505afa15801561072f573d6000803e3d6000fd5b505050506040513d602081101561074557600080fd5b505161075084610c2d565b9063ffffffff6109e416565b92915050565b60058054604080516020601f60026000196101006001881615020190951694909404938401819004810282018101909252828152606093909290918301828280156104bc5780601f10610491576101008083540402835291602001916104bc565b6107cc3361093d565b61080a5760405160e560020a62461bcd0281526004018080602001828103825260308152602001806111076030913960400191505060405180910390fd5b61081381610c48565b50565b61081f33610c90565b565b61082a3361093d565b6108685760405160e560020a62461bcd0281526004018080602001828103825260308152602001806111076030913960400191505060405180910390fd5b6108728282610cd8565b5050565b336000818152600160209081526040808320600160a060020a03871684529091528120549091610647918590610642908663ffffffff610db416565b600654604080517f1c1b877200000000000000000000000000000000000000000000000000000000815233600482015290516000926101009004600160a060020a031691631c1b8772916024808301928692919082900301818387803b15801561091b57600080fd5b505af115801561092f573d6000803e3d6000fd5b505050506105518383610e14565b600061075c60038363ffffffff610e2116565b600160a060020a03918216600090815260016020908152604080832093909416825291909152205490565b6006546101009004600160a060020a031681565b6000610647338484610a48565b60006109a9848484610e8b565b600160a060020a038416600090815260016020908152604080832033808552925290912054610551918691610642908663ffffffff610db416565b600082820183811015610a41576040805160e560020a62461bcd02815260206004820152601b60248201527f536166654d6174683a206164646974696f6e206f766572666c6f770000000000604482015290519081900360640190fd5b9392505050565b600160a060020a038316610a905760405160e560020a62461bcd0281526004018080602001828103825260248152602001806111c06024913960400191505060405180910390fd5b600160a060020a038216610ad85760405160e560020a62461bcd0281526004018080602001828103825260228152602001806110e56022913960400191505060405180910390fd5b600160a060020a03808416600081815260016020908152604080832094871680845294825291829020859055815185815291517f8c5be1e5ebec7d5bd14f71427d1e84f3dd0314c0f7b2291e5b200ac8c7c3b9259281900390910190a3505050565b600160a060020a038216610b98576040805160e560020a62461bcd02815260206004820152601f60248201527f45524332303a206d696e7420746f20746865207a65726f206164647265737300604482015290519081900360640190fd5b600254610bab908263ffffffff6109e416565b600255600160a060020a038216600090815260208190526040902054610bd7908263ffffffff6109e416565b600160a060020a0383166000818152602081815260408083209490945583518581529351929391927fddf252ad1be2c89b69c2b068fc378daa952ba7f163c4a11628f55a4df523b3ef9281900390910190a35050565b600160a060020a031660009081526020819052604090205490565b610c5960038263ffffffff610fd316565b604051600160a060020a038216907f6ae172837ea30b801fbfcdd4108aa1d5bf8ff775444fd70256b44e6bf3dfc3f690600090a250565b610ca160038263ffffffff61105716565b604051600160a060020a038216907fe94479a9f7e1952cc78f2d6baab678adc1b772d936c6583def489e524cb6669290600090a250565b600160a060020a038216610d205760405160e560020a62461bcd02815260040180806020018281038252602181526020018061117a6021913960400191505060405180910390fd5b600254610d33908263ffffffff610db416565b600255600160a060020a038216600090815260208190526040902054610d5f908263ffffffff610db416565b600160a060020a038316600081815260208181526040808320949094558351858152935191937fddf252ad1be2c89b69c2b068fc378daa952ba7f163c4a11628f55a4df523b3ef929081900390910190a35050565b600082821115610e0e576040805160e560020a62461bcd02815260206004820152601e60248201527f536166654d6174683a207375627472616374696f6e206f766572666c6f770000604482015290519081900360640190fd5b50900390565b6000610647338484610e8b565b6000600160a060020a038216610e6b5760405160e560020a62461bcd0281526004018080602001828103825260228152602001806111586022913960400191505060405180910390fd5b50600160a060020a03166000908152602091909152604090205460ff1690565b600160a060020a038316610ed35760405160e560020a62461bcd02815260040180806020018281038252602581526020018061119b6025913960400191505060405180910390fd5b600160a060020a038216610f1b5760405160e560020a62461bcd0281526004018080602001828103825260238152602001806110c26023913960400191505060405180910390fd5b600160a060020a038316600090815260208190526040902054610f44908263ffffffff610db416565b600160a060020a038085166000908152602081905260408082209390935590841681522054610f79908263ffffffff6109e416565b600160a060020a038084166000818152602081815260409182902094909455805185815290519193928716927fddf252ad1be2c89b69c2b068fc378daa952ba7f163c4a11628f55a4df523b3ef92918290030190a3505050565b610fdd8282610e21565b15611032576040805160e560020a62461bcd02815260206004820152601f60248201527f526f6c65733a206163636f756e7420616c72656164792068617320726f6c6500604482015290519081900360640190fd5b600160a060020a0316600090815260209190915260409020805460ff19166001179055565b6110618282610e21565b61109f5760405160e560020a62461bcd0281526004018080602001828103825260218152602001806111376021913960400191505060405180910390fd5b600160a060020a0316600090815260209190915260409020805460ff1916905556fe45524332303a207472616e7366657220746f20746865207a65726f206164647265737345524332303a20617070726f766520746f20746865207a65726f20616464726573734d696e746572526f6c653a2063616c6c657220646f6573206e6f74206861766520746865204d696e74657220726f6c65526f6c65733a206163636f756e7420646f6573206e6f74206861766520726f6c65526f6c65733a206163636f756e7420697320746865207a65726f206164647265737345524332303a206275726e2066726f6d20746865207a65726f206164647265737345524332303a207472616e736665722066726f6d20746865207a65726f206164647265737345524332303a20617070726f76652066726f6d20746865207a65726f2061646472657373a165627a7a72305820e8ee093661b142d439a107075dce6aa2adf6405eda75edc2408fa173b34768570029526f6c65733a206163636f756e7420697320746865207a65726f2061646472657373",
  "source": "pragma solidity ^0.5.0;\n\n// Everyone who deposits funds is issued time tokens.\n// 1 CHAR token is equivalent to 1 DAI for 1 block and represents your voting power\n// There are three phases - voting, deposit and donate\n// In the voting phase CHAR holders vote on the address they would like to receive funds from the next deposit phase.\n// In the deposit phases people can depositnpm\n// Each epoch (e.g. 1000 blocks)\n\nimport 'openzeppelin-solidity/contracts/token/ERC20/ERC20Mintable.sol';\nimport 'openzeppelin-solidity/contracts/token/ERC20/ERC20Detailed.sol';\nimport './IDeFiDonate.sol';\n\ncontract GovernanceToken is ERC20Mintable, ERC20Detailed {\n\n    IDeFiDonate public deFiDonate;\n\n    constructor (string memory _name, string memory _symbol, uint8 _decimals) public\n        ERC20Detailed(_name, _symbol, _decimals)\n    {\n        deFiDonate = IDeFiDonate(msg.sender);\n    }\n\n    // Used when voting with this token\n    function burn(address _account, uint256 _amount) external onlyMinter {\n        _burn(_account, _amount);\n    }\n\n    // Add on any accrued interest when calculating balances\n    // NB - this breaks totalSupply (e.g. sum over all addresses of balanceOf != totalSupply)\n    function balanceOf(address _account) public view returns (uint256) {\n        return super.balanceOf(_account).add(deFiDonate.accrued(_account));\n    }\n\n    function blockNumber() public view returns (uint256) {\n        return block.number;\n    }\n\n    function blockTime() public view returns (uint256) {\n        return block.timestamp;\n    }\n\n    function transfer(address _recipient, uint256 _amount) public returns (bool) {\n        // To make sure the transfer doesn't fail due to insufficient funds make sure we add\n        // any accrued governance tokens before trying to transfer\n        deFiDonate.update(msg.sender);\n        super.transfer(_recipient, _amount);\n        return true;\n    }\n\n    function approve(address _spender, uint256 _value) public returns (bool) {\n        deFiDonate.update(msg.sender);\n        super.approve(_spender, _value);\n        return true;\n    }\n\n    function transferFrom(address _sender, address _recipient, uint256 _amount) public returns (bool) {\n        deFiDonate.update(_sender);\n        super.transferFrom(_sender, _recipient, _amount);\n        return true;\n    }\n\n}\n",
  "sourcePath": "/Users/adamdossa/Development/Ethereum/DeFiDonate/contracts/GovernanceToken.sol",
  "compiler": {
    "name": "solc",
    "version": "0.5.8+commit.23d335f2.Emscripten.clang"
  },
  "schemaVersion": "3.0.2",
  "updatedAt": "2019-07-02T01:44:01.889Z",
  "devdoc": {
    "methods": {
      "allowance(address,address)": {
        "details": "See `IERC20.allowance`."
      },
      "decimals()": {
        "details": "Returns the number of decimals used to get its user representation. For example, if `decimals` equals `2`, a balance of `505` tokens should be displayed to a user as `5,05` (`505 / 10 ** 2`).     * Tokens usually opt for a value of 18, imitating the relationship between Ether and Wei.     * > Note that this information is only used for _display_ purposes: it in no way affects any of the arithmetic of the contract, including `IERC20.balanceOf` and `IERC20.transfer`."
      },
      "decreaseAllowance(address,uint256)": {
        "details": "Atomically decreases the allowance granted to `spender` by the caller.     * This is an alternative to `approve` that can be used as a mitigation for problems described in `IERC20.approve`.     * Emits an `Approval` event indicating the updated allowance.     * Requirements:     * - `spender` cannot be the zero address. - `spender` must have allowance for the caller of at least `subtractedValue`."
      },
      "increaseAllowance(address,uint256)": {
        "details": "Atomically increases the allowance granted to `spender` by the caller.     * This is an alternative to `approve` that can be used as a mitigation for problems described in `IERC20.approve`.     * Emits an `Approval` event indicating the updated allowance.     * Requirements:     * - `spender` cannot be the zero address."
      },
      "mint(address,uint256)": {
        "details": "See `ERC20._mint`.     * Requirements:     * - the caller must have the `MinterRole`."
      },
      "name()": {
        "details": "Returns the name of the token."
      },
      "symbol()": {
        "details": "Returns the symbol of the token, usually a shorter version of the name."
      },
      "totalSupply()": {
        "details": "See `IERC20.totalSupply`."
      }
    }
  },
  "userdoc": {
    "methods": {}
  }
}