{
  "contractName": "MockCompound",
  "abi": [
    {
      "constant": true,
      "inputs": [],
      "name": "token",
      "outputs": [
        {
          "name": "",
          "type": "address"
        }
      ],
      "payable": false,
      "stateMutability": "view",
      "type": "function",
      "signature": "0xfc0c546a"
    },
    {
      "inputs": [
        {
          "name": "_token",
          "type": "address"
        }
      ],
      "payable": false,
      "stateMutability": "nonpayable",
      "type": "constructor",
      "signature": "constructor"
    },
    {
      "constant": false,
      "inputs": [
        {
          "name": "redeemAmount",
          "type": "uint256"
        }
      ],
      "name": "redeemUnderlying",
      "outputs": [
        {
          "name": "",
          "type": "uint256"
        }
      ],
      "payable": false,
      "stateMutability": "nonpayable",
      "type": "function",
      "signature": "0x852a12e3"
    },
    {
      "constant": false,
      "inputs": [
        {
          "name": "mintAmount",
          "type": "uint256"
        }
      ],
      "name": "mint",
      "outputs": [
        {
          "name": "",
          "type": "uint256"
        }
      ],
      "payable": false,
      "stateMutability": "nonpayable",
      "type": "function",
      "signature": "0xa0712d68"
    },
    {
      "constant": false,
      "inputs": [
        {
          "name": "owner",
          "type": "address"
        }
      ],
      "name": "balanceOfUnderlying",
      "outputs": [
        {
          "name": "",
          "type": "uint256"
        }
      ],
      "payable": false,
      "stateMutability": "nonpayable",
      "type": "function",
      "signature": "0x3af9e669"
    }
  ],
  "bytecode": "0x608060405234801561001057600080fd5b5060405160208061051b8339810180604052602081101561003057600080fd5b505160008054600160a060020a03909216600160a060020a03199092169190911790556104b9806100626000396000f3fe608060405234801561001057600080fd5b5060043610610068577c010000000000000000000000000000000000000000000000000000000060003504633af9e669811461006d578063852a12e3146100a5578063a0712d68146100c2578063fc0c546a146100df575b600080fd5b6100936004803603602081101561008357600080fd5b5035600160a060020a0316610103565b60408051918252519081900360200190f35b610093600480360360208110156100bb57600080fd5b50356101bd565b610093600480360360208110156100d857600080fd5b50356102ec565b6100e761035f565b60408051600160a060020a039092168252519081900360200190f35b60008054604080517f70a0823100000000000000000000000000000000000000000000000000000000815230600482015290516101b7926064926101ab92606992600160a060020a0316916370a08231916024808301926020929190829003018186803b15801561017357600080fd5b505afa158015610187573d6000803e3d6000fd5b505050506040513d602081101561019d57600080fd5b50519063ffffffff61036e16565b9063ffffffff6103e816565b92915050565b60008054604080517f40c10f19000000000000000000000000000000000000000000000000000000008152306004820152602481018590529051600160a060020a03909216916340c10f1991604480820192869290919082900301818387803b15801561022957600080fd5b505af115801561023d573d6000803e3d6000fd5b505060008054604080517fa9059cbb000000000000000000000000000000000000000000000000000000008152336004820152602481018890529051600160a060020a03909216945063a9059cbb93506044808201936020939283900390910190829087803b1580156102af57600080fd5b505af11580156102c3573d6000803e3d6000fd5b505050506040513d60208110156102d957600080fd5b50516102e457600080fd5b506000919050565b60008054604080517f23b872dd000000000000000000000000000000000000000000000000000000008152336004820152306024820152604481018590529051600160a060020a03909216916323b872dd9160648082019260209290919082900301818787803b1580156102af57600080fd5b600054600160a060020a031681565b60008261037d575060006101b7565b8282028284828161038a57fe5b04146103e1576040517f08c379a000000000000000000000000000000000000000000000000000000000815260040180806020018281038252602181526020018061046d6021913960400191505060405180910390fd5b9392505050565b600080821161045857604080517f08c379a000000000000000000000000000000000000000000000000000000000815260206004820152601a60248201527f536166654d6174683a206469766973696f6e206279207a65726f000000000000604482015290519081900360640190fd5b600082848161046357fe5b0494935050505056fe536166654d6174683a206d756c7469706c69636174696f6e206f766572666c6f77a165627a7a7230582062fb7062bda5da6c9c843de02d7987d2657c2652378b1c2013bbcb30aaefdabf0029",
  "source": "pragma solidity ^0.5.0;\n\n// Everyone who deposits funds is issued time tokens.\n// 1 CHAR token is equivalent to 1 DAI for 1 block and represents your voting power\n// There are three phases - voting, deposit and donate\n// In the voting phase CHAR holders vote on the address they would like to receive funds from the next deposit phase.\n// In the deposit phases people can depositnpm\n// Each epoch (e.g. 1000 blocks)\n\nimport './ICompound.sol';\nimport './MockDepositToken.sol';\nimport 'openzeppelin-solidity/contracts/math/SafeMath.sol';\n\ncontract MockCompound is ICompound {\n    using SafeMath for uint256;\n\n    MockDepositToken public token;\n\n    constructor(address _token) public {\n        token = MockDepositToken(_token);\n    }\n\n    function redeemUnderlying(uint redeemAmount) external returns (uint) {\n        token.mint(address(this), redeemAmount);\n        require(token.transfer(msg.sender, redeemAmount));\n        return 0;\n    }\n\n    function mint(uint mintAmount) external returns (uint) {\n        require(token.transferFrom(msg.sender, address(this), mintAmount));\n        return 0;\n    }\n\n    function balanceOfUnderlying(address owner) external returns (uint) {\n        // Add a small amount to owner\n        return token.balanceOf(address(this)).mul(105).div(100);\n    }\n}\n",
  "sourcePath": "/Users/adamdossa/Development/Ethereum/DeFiDonate/contracts/MockCompound.sol",
  "compiler": {
    "name": "solc",
    "version": "0.5.8+commit.23d335f2.Emscripten.clang"
  },
  "schemaVersion": "3.0.2",
  "updatedAt": "2019-07-02T01:04:25.213Z",
  "devdoc": {
    "methods": {}
  },
  "userdoc": {
    "methods": {}
  }
}