{
  "contractName": "MockCompound",
  "abi": [
    {
      "constant": true,
      "inputs": [],
      "name": "token",
      "outputs": [
        {
          "name": "",
          "type": "address"
        }
      ],
      "payable": false,
      "stateMutability": "view",
      "type": "function",
      "signature": "0xfc0c546a"
    },
    {
      "inputs": [
        {
          "name": "_token",
          "type": "address"
        }
      ],
      "payable": false,
      "stateMutability": "nonpayable",
      "type": "constructor",
      "signature": "constructor"
    },
    {
      "constant": false,
      "inputs": [
        {
          "name": "redeemAmount",
          "type": "uint256"
        }
      ],
      "name": "redeemUnderlying",
      "outputs": [
        {
          "name": "",
          "type": "uint256"
        }
      ],
      "payable": false,
      "stateMutability": "nonpayable",
      "type": "function",
      "signature": "0x852a12e3"
    },
    {
      "constant": false,
      "inputs": [
        {
          "name": "mintAmount",
          "type": "uint256"
        }
      ],
      "name": "mint",
      "outputs": [
        {
          "name": "",
          "type": "uint256"
        }
      ],
      "payable": false,
      "stateMutability": "nonpayable",
      "type": "function",
      "signature": "0xa0712d68"
    },
    {
      "constant": false,
      "inputs": [
        {
          "name": "owner",
          "type": "address"
        }
      ],
      "name": "balanceOfUnderlying",
      "outputs": [
        {
          "name": "",
          "type": "uint256"
        }
      ],
      "payable": false,
      "stateMutability": "nonpayable",
      "type": "function",
      "signature": "0x3af9e669"
    }
  ],
  "bytecode": "0x608060405234801561001057600080fd5b506040516020806103db8339810180604052602081101561003057600080fd5b505160008054600160a060020a03909216600160a060020a0319909216919091179055610379806100626000396000f3fe608060405234801561001057600080fd5b5060043610610068577c010000000000000000000000000000000000000000000000000000000060003504633af9e669811461006d578063852a12e3146100a5578063a0712d68146100c2578063fc0c546a146100df575b600080fd5b6100936004803603602081101561008357600080fd5b5035600160a060020a0316610103565b60408051918252519081900360200190f35b610093600480360360208110156100bb57600080fd5b5035610221565b610093600480360360208110156100d857600080fd5b50356102cb565b6100e761033e565b60408051600160a060020a039092168252519081900360200190f35b60008054604080517f40c10f19000000000000000000000000000000000000000000000000000000008152600160a060020a03858116600483015260646024830152915191909216916340c10f19916044808301928692919082900301818387803b15801561017157600080fd5b505af1158015610185573d6000803e3d6000fd5b5050600054604080517f70a08231000000000000000000000000000000000000000000000000000000008152600160a060020a03878116600483015291519190921693506370a0823192506024808301926020929190829003018186803b1580156101ef57600080fd5b505afa158015610203573d6000803e3d6000fd5b505050506040513d602081101561021957600080fd5b505192915050565b60008054604080517fa9059cbb000000000000000000000000000000000000000000000000000000008152336004820152602481018590529051600160a060020a039092169163a9059cbb9160448082019260209290919082900301818787803b15801561028e57600080fd5b505af11580156102a2573d6000803e3d6000fd5b505050506040513d60208110156102b857600080fd5b50516102c357600080fd5b506000919050565b60008054604080517f23b872dd000000000000000000000000000000000000000000000000000000008152336004820152306024820152604481018590529051600160a060020a03909216916323b872dd9160648082019260209290919082900301818787803b15801561028e57600080fd5b600054600160a060020a03168156fea165627a7a72305820a348fcd0efbb122db990f7d159edf4d45044a81a397aec5ac314c1fdcaad830a0029",
  "source": "pragma solidity ^0.5.0;\n\n// Everyone who deposits funds is issued time tokens.\n// 1 CHAR token is equivalent to 1 DAI for 1 block and represents your voting power\n// There are three phases - voting, deposit and donate\n// In the voting phase CHAR holders vote on the address they would like to receive funds from the next deposit phase.\n// In the deposit phases people can depositnpm\n// Each epoch (e.g. 1000 blocks)\n\nimport './ICompound.sol';\nimport './MockDepositToken.sol';\n\ncontract MockCompound is ICompound {\n\n    MockDepositToken public token;\n\n    constructor(address _token) public {\n        token = MockDepositToken(_token);\n    }\n\n    function redeemUnderlying(uint redeemAmount) external returns (uint) {\n        require(token.transfer(msg.sender, redeemAmount));\n        return 0;\n    }\n\n    function mint(uint mintAmount) external returns (uint) {\n        require(token.transferFrom(msg.sender, address(this), mintAmount));\n        return 0;\n    }\n\n    function balanceOfUnderlying(address owner) external returns (uint) {\n        // Add a small amount to owner\n        token.mint(owner, 100);\n        return token.balanceOf(owner);\n    }\n}\n",
  "sourcePath": "/Users/adamdossa/Development/Ethereum/DeFiDonate/contracts/MockCompound.sol",
  "compiler": {
    "name": "solc",
    "version": "0.5.8+commit.23d335f2.Emscripten.clang"
  },
  "schemaVersion": "3.0.2",
  "updatedAt": "2019-06-29T02:17:39.901Z",
  "devdoc": {
    "methods": {}
  },
  "userdoc": {
    "methods": {}
  }
}